{
  "contractName": "NativeMetaTransaction",
  "abi": [
    {
      "anonymous": false,
      "inputs": [
        {
          "indexed": false,
          "internalType": "address",
          "name": "userAddress",
          "type": "address"
        },
        {
          "indexed": false,
          "internalType": "address payable",
          "name": "relayerAddress",
          "type": "address"
        },
        {
          "indexed": false,
          "internalType": "bytes",
          "name": "functionSignature",
          "type": "bytes"
        }
      ],
      "name": "MetaTransactionExecuted",
      "type": "event"
    },
    {
      "inputs": [],
      "name": "ERC712_VERSION",
      "outputs": [
        {
          "internalType": "string",
          "name": "",
          "type": "string"
        }
      ],
      "stateMutability": "view",
      "type": "function"
    },
    {
      "inputs": [],
      "name": "getChainId",
      "outputs": [
        {
          "internalType": "uint256",
          "name": "",
          "type": "uint256"
        }
      ],
      "stateMutability": "view",
      "type": "function"
    },
    {
      "inputs": [],
      "name": "getDomainSeperator",
      "outputs": [
        {
          "internalType": "bytes32",
          "name": "",
          "type": "bytes32"
        }
      ],
      "stateMutability": "view",
      "type": "function"
    },
    {
      "inputs": [
        {
          "internalType": "address",
          "name": "userAddress",
          "type": "address"
        },
        {
          "internalType": "bytes",
          "name": "functionSignature",
          "type": "bytes"
        },
        {
          "internalType": "bytes32",
          "name": "sigR",
          "type": "bytes32"
        },
        {
          "internalType": "bytes32",
          "name": "sigS",
          "type": "bytes32"
        },
        {
          "internalType": "uint8",
          "name": "sigV",
          "type": "uint8"
        }
      ],
      "name": "executeMetaTransaction",
      "outputs": [
        {
          "internalType": "bytes",
          "name": "",
          "type": "bytes"
        }
      ],
      "stateMutability": "payable",
      "type": "function"
    },
    {
      "inputs": [
        {
          "internalType": "address",
          "name": "user",
          "type": "address"
        }
      ],
      "name": "getNonce",
      "outputs": [
        {
          "internalType": "uint256",
          "name": "nonce",
          "type": "uint256"
        }
      ],
      "stateMutability": "view",
      "type": "function"
    }
  ],
  "bytecode": "0x608060405260008060006101000a81548160ff02191690831515021790555034801561002a57600080fd5b50610f308061003a6000396000f3fe60806040526004361061004a5760003560e01c80630c53c51c1461004f5780630f7e59701461007f57806320379ee5146100aa5780632d0335ab146100d55780633408e47014610112575b600080fd5b61006960048036038101906100649190610811565b61013d565b6040516100769190610927565b60405180910390f35b34801561008b57600080fd5b506100946103a8565b6040516100a1919061099e565b60405180910390f35b3480156100b657600080fd5b506100bf6103e1565b6040516100cc91906109cf565b60405180910390f35b3480156100e157600080fd5b506100fc60048036038101906100f791906109ea565b6103eb565b6040516101099190610a30565b60405180910390f35b34801561011e57600080fd5b50610127610434565b6040516101349190610a30565b60405180910390f35b606060006040518060600160405280600260008a73ffffffffffffffffffffffffffffffffffffffff1673ffffffffffffffffffffffffffffffffffffffff1681526020019081526020016000205481526020018873ffffffffffffffffffffffffffffffffffffffff1681526020018781525090506101c08782878787610441565b6101ff576040517f08c379a00000000000000000000000000000000000000000000000000000000081526004016101f690610abd565b60405180910390fd5b6001600260008973ffffffffffffffffffffffffffffffffffffffff1673ffffffffffffffffffffffffffffffffffffffff1681526020019081526020016000205461024b9190610b0c565b600260008973ffffffffffffffffffffffffffffffffffffffff1673ffffffffffffffffffffffffffffffffffffffff168152602001908152602001600020819055507f5845892132946850460bff5a0083f71031bc5bf9aadcd40f1de79423eac9b10b8733886040516102c193929190610b70565b60405180910390a16000803073ffffffffffffffffffffffffffffffffffffffff16888a6040516020016102f6929190610c32565b6040516020818303038152906040526040516103129190610c5a565b6000604051808303816000865af19150503d806000811461034f576040519150601f19603f3d011682016040523d82523d6000602084013e610354565b606091505b509150915081610399576040517f08c379a000000000000000000000000000000000000000000000000000000000815260040161039090610cbd565b60405180910390fd5b80935050505095945050505050565b6040518060400160405280600181526020017f310000000000000000000000000000000000000000000000000000000000000081525081565b6000600154905090565b6000600260008373ffffffffffffffffffffffffffffffffffffffff1673ffffffffffffffffffffffffffffffffffffffff168152602001908152602001600020549050919050565b6000804690508091505090565b60008073ffffffffffffffffffffffffffffffffffffffff168673ffffffffffffffffffffffffffffffffffffffff16036104b1576040517f08c379a00000000000000000000000000000000000000000000000000000000081526004016104a890610d4f565b60405180910390fd5b60016104c46104bf87610549565b6105b1565b838686604051600081526020016040526040516104e49493929190610d7e565b6020604051602081039080840390855afa158015610506573d6000803e3d6000fd5b5050506020604051035173ffffffffffffffffffffffffffffffffffffffff168673ffffffffffffffffffffffffffffffffffffffff1614905095945050505050565b6000604051806080016040528060438152602001610eb86043913980519060200120826000015183602001518460400151805190602001206040516020016105949493929190610dc3565b604051602081830303815290604052805190602001209050919050565b60006105bb6103e1565b826040516020016105cd929190610e80565b604051602081830303815290604052805190602001209050919050565b6000604051905090565b600080fd5b600080fd5b600073ffffffffffffffffffffffffffffffffffffffff82169050919050565b6000610629826105fe565b9050919050565b6106398161061e565b811461064457600080fd5b50565b60008135905061065681610630565b92915050565b600080fd5b600080fd5b6000601f19601f8301169050919050565b7f4e487b7100000000000000000000000000000000000000000000000000000000600052604160045260246000fd5b6106af82610666565b810181811067ffffffffffffffff821117156106ce576106cd610677565b5b80604052505050565b60006106e16105ea565b90506106ed82826106a6565b919050565b600067ffffffffffffffff82111561070d5761070c610677565b5b61071682610666565b9050602081019050919050565b82818337600083830152505050565b6000610745610740846106f2565b6106d7565b90508281526020810184848401111561076157610760610661565b5b61076c848285610723565b509392505050565b600082601f8301126107895761078861065c565b5b8135610799848260208601610732565b91505092915050565b6000819050919050565b6107b5816107a2565b81146107c057600080fd5b50565b6000813590506107d2816107ac565b92915050565b600060ff82169050919050565b6107ee816107d8565b81146107f957600080fd5b50565b60008135905061080b816107e5565b92915050565b600080600080600060a0868803121561082d5761082c6105f4565b5b600061083b88828901610647565b955050602086013567ffffffffffffffff81111561085c5761085b6105f9565b5b61086888828901610774565b9450506040610879888289016107c3565b935050606061088a888289016107c3565b925050608061089b888289016107fc565b9150509295509295909350565b600081519050919050565b600082825260208201905092915050565b60005b838110156108e25780820151818401526020810190506108c7565b60008484015250505050565b60006108f9826108a8565b61090381856108b3565b93506109138185602086016108c4565b61091c81610666565b840191505092915050565b6000602082019050818103600083015261094181846108ee565b905092915050565b600081519050919050565b600082825260208201905092915050565b600061097082610949565b61097a8185610954565b935061098a8185602086016108c4565b61099381610666565b840191505092915050565b600060208201905081810360008301526109b88184610965565b905092915050565b6109c9816107a2565b82525050565b60006020820190506109e460008301846109c0565b92915050565b600060208284031215610a00576109ff6105f4565b5b6000610a0e84828501610647565b91505092915050565b6000819050919050565b610a2a81610a17565b82525050565b6000602082019050610a456000830184610a21565b92915050565b7f5369676e657220616e64207369676e617475726520646f206e6f74206d61746360008201527f6800000000000000000000000000000000000000000000000000000000000000602082015250565b6000610aa7602183610954565b9150610ab282610a4b565b604082019050919050565b60006020820190508181036000830152610ad681610a9a565b9050919050565b7f4e487b7100000000000000000000000000000000000000000000000000000000600052601160045260246000fd5b6000610b1782610a17565b9150610b2283610a17565b9250828201905080821115610b3a57610b39610add565b5b92915050565b610b498161061e565b82525050565b6000610b5a826105fe565b9050919050565b610b6a81610b4f565b82525050565b6000606082019050610b856000830186610b40565b610b926020830185610b61565b8181036040830152610ba481846108ee565b9050949350505050565b600081905092915050565b6000610bc4826108a8565b610bce8185610bae565b9350610bde8185602086016108c4565b80840191505092915050565b60008160601b9050919050565b6000610c0282610bea565b9050919050565b6000610c1482610bf7565b9050919050565b610c2c610c278261061e565b610c09565b82525050565b6000610c3e8285610bb9565b9150610c4a8284610c1b565b6014820191508190509392505050565b6000610c668284610bb9565b915081905092915050565b7f46756e6374696f6e2063616c6c206e6f74207375636365737366756c00000000600082015250565b6000610ca7601c83610954565b9150610cb282610c71565b602082019050919050565b60006020820190508181036000830152610cd681610c9a565b9050919050565b7f4e61746976654d6574615472616e73616374696f6e3a20494e56414c49445f5360008201527f49474e4552000000000000000000000000000000000000000000000000000000602082015250565b6000610d39602583610954565b9150610d4482610cdd565b604082019050919050565b60006020820190508181036000830152610d6881610d2c565b9050919050565b610d78816107d8565b82525050565b6000608082019050610d9360008301876109c0565b610da06020830186610d6f565b610dad60408301856109c0565b610dba60608301846109c0565b95945050505050565b6000608082019050610dd860008301876109c0565b610de56020830186610a21565b610df26040830185610b40565b610dff60608301846109c0565b95945050505050565b600081905092915050565b7f1901000000000000000000000000000000000000000000000000000000000000600082015250565b6000610e49600283610e08565b9150610e5482610e13565b600282019050919050565b6000819050919050565b610e7a610e75826107a2565b610e5f565b82525050565b6000610e8b82610e3c565b9150610e978285610e69565b602082019150610ea78284610e69565b602082019150819050939250505056fe4d6574615472616e73616374696f6e2875696e74323536206e6f6e63652c616464726573732066726f6d2c62797465732066756e6374696f6e5369676e617475726529a264697066735822122049759bde2e7b7393285c1e20ccfb79a5ea109346ac61493d1da520429ee79ed164736f6c63430008110033",
  "immutableReferences": {},
  "source": "// SPDX-License-Identifier: MIT\npragma solidity ^0.8.0;\n\nimport \"@openzeppelin/contracts/utils/introspection/IERC165.sol\";\nimport \"./IERC721.sol\";\nimport \"./IERC721Enumerable.sol\";\nimport \"@openzeppelin/contracts/utils/introspection/ERC165.sol\";\nimport \"@openzeppelin/contracts/utils/Strings.sol\";\nimport \"@openzeppelin/contracts/utils/Address.sol\";\nimport \"./IERC721Metadata.sol\";\nimport \"@openzeppelin/contracts/token/ERC721/IERC721Receiver.sol\";\nimport \"@openzeppelin/contracts/utils/Context.sol\";\nimport \"./ERC721.sol\";\nimport \"./ERC721Enumerable.sol\";\nimport \"@openzeppelin/contracts/access/Ownable.sol\";\nimport \"@openzeppelin/contracts/security/ReentrancyGuard.sol\";\nimport \"operator-filter-registry/src/DefaultOperatorFilterer.sol\";\n\nabstract contract ContextMixin {\n    function msgSender() internal view returns (address payable sender) {\n        if (msg.sender == address(this)) {\n            bytes memory array = msg.data;\n            uint256 index = msg.data.length;\n            assembly {\n                // Load the 32 bytes word from memory with the address on the lower 20 bytes, and mask those.\n                sender := and(\n                    mload(add(array, index)),\n                    0xffffffffffffffffffffffffffffffffffffffff\n                )\n            }\n        } else {\n            sender = payable(msg.sender);\n        }\n        return sender;\n    }\n}\n\ncontract Initializable {\n    bool inited = false;\n\n    modifier initializer() {\n        require(!inited, \"already inited\");\n        _;\n        inited = true;\n    }\n}\n\ncontract EIP712Base is Initializable {\n    struct EIP712Domain {\n        string name;\n        string version;\n        address verifyingContract;\n        bytes32 salt;\n    }\n\n    string public constant ERC712_VERSION = \"1\";\n\n    bytes32 internal constant EIP712_DOMAIN_TYPEHASH =\n        keccak256(\n            bytes(\n                \"EIP712Domain(string name,string version,address verifyingContract,bytes32 salt)\"\n            )\n        );\n    bytes32 internal domainSeperator;\n\n    // supposed to be called once while initializing.\n    // one of the contractsa that inherits this contract follows proxy pattern\n    // so it is not possible to do this in a constructor\n    function _initializeEIP712(string memory name) internal initializer {\n        _setDomainSeperator(name);\n    }\n\n    function _setDomainSeperator(string memory name) internal {\n        domainSeperator = keccak256(\n            abi.encode(\n                EIP712_DOMAIN_TYPEHASH,\n                keccak256(bytes(name)),\n                keccak256(bytes(ERC712_VERSION)),\n                address(this),\n                bytes32(getChainId())\n            )\n        );\n    }\n\n    function getDomainSeperator() public view returns (bytes32) {\n        return domainSeperator;\n    }\n\n    function getChainId() public view returns (uint256) {\n        uint256 id;\n        assembly {\n            id := chainid()\n        }\n        return id;\n    }\n\n    /**\n     * Accept message hash and returns hash message in EIP712 compatible form\n     * So that it can be used to recover signer from signature signed using EIP712 formatted data\n     * https://eips.ethereum.org/EIPS/eip-712\n     * \"\\\\x19\" makes the encoding deterministic\n     * \"\\\\x01\" is the version byte to make it compatible to EIP-191\n     */\n    function toTypedMessageHash(bytes32 messageHash)\n        internal\n        view\n        returns (bytes32)\n    {\n        return\n            keccak256(\n                abi.encodePacked(\"\\x19\\x01\", getDomainSeperator(), messageHash)\n            );\n    }\n}\n\ncontract NativeMetaTransaction is EIP712Base {\n    bytes32 private constant META_TRANSACTION_TYPEHASH =\n        keccak256(\n            bytes(\n                \"MetaTransaction(uint256 nonce,address from,bytes functionSignature)\"\n            )\n        );\n    event MetaTransactionExecuted(\n        address userAddress,\n        address payable relayerAddress,\n        bytes functionSignature\n    );\n    mapping(address => uint256) nonces;\n\n    /*\n     * Meta transaction structure.\n     * No point of including value field here as if user is doing value transfer then he has the funds to pay for gas\n     * He should call the desired function directly in that case.\n     */\n    struct MetaTransaction {\n        uint256 nonce;\n        address from;\n        bytes functionSignature;\n    }\n\n    function executeMetaTransaction(\n        address userAddress,\n        bytes memory functionSignature,\n        bytes32 sigR,\n        bytes32 sigS,\n        uint8 sigV\n    ) public payable returns (bytes memory) {\n        MetaTransaction memory metaTx = MetaTransaction({\n            nonce: nonces[userAddress],\n            from: userAddress,\n            functionSignature: functionSignature\n        });\n        require(\n            verify(userAddress, metaTx, sigR, sigS, sigV),\n            \"Signer and signature do not match\"\n        );\n\n        // increase nonce for user (to avoid re-use)\n        nonces[userAddress] = nonces[userAddress] + 1;\n\n        emit MetaTransactionExecuted(\n            userAddress,\n            payable(msg.sender),\n            functionSignature\n        );\n\n        // Append userAddress and relayer address at the end to extract it from calling context\n        (bool success, bytes memory returnData) = address(this).call(\n            abi.encodePacked(functionSignature, userAddress)\n        );\n        require(success, \"Function call not successful\");\n\n        return returnData;\n    }\n\n    function hashMetaTransaction(MetaTransaction memory metaTx)\n        internal\n        pure\n        returns (bytes32)\n    {\n        return\n            keccak256(\n                abi.encode(\n                    META_TRANSACTION_TYPEHASH,\n                    metaTx.nonce,\n                    metaTx.from,\n                    keccak256(metaTx.functionSignature)\n                )\n            );\n    }\n\n    function getNonce(address user) public view returns (uint256 nonce) {\n        nonce = nonces[user];\n    }\n\n    function verify(\n        address signer,\n        MetaTransaction memory metaTx,\n        bytes32 sigR,\n        bytes32 sigS,\n        uint8 sigV\n    ) internal view returns (bool) {\n        require(signer != address(0), \"NativeMetaTransaction: INVALID_SIGNER\");\n        return\n            signer ==\n            ecrecover(\n                toTypedMessageHash(hashMetaTransaction(metaTx)),\n                sigV,\n                sigR,\n                sigS\n            );\n    }\n}\n\ncontract PrettyFaces is\n    ERC721Enumerable,\n    Ownable,\n    ReentrancyGuard,\n    ContextMixin,\n    NativeMetaTransaction,\n    DefaultOperatorFilterer\n{\n    using Strings for uint256;\n\n    string baseURI;\n    string public baseExtension = \".json\";\n    uint256 public cost;\n    uint256 public maxSupply;\n    uint256 public maxMintAmount = 10;\n    uint256 public timeDeployed;\n    uint256 public allowMintingAfter = 0;\n    bool public isPaused = false;\n    bool public isRevealed = true;\n    string public notRevealedUri;\n    address payable public artist;\n    uint256 public royalityFee;\n    uint256 public giftMintCount;\n    mapping(uint256 => address) public giftReceivers;\n    event Sale(address from, address to, uint256 value);\n\n    constructor(\n        string memory _name,\n        string memory _symbol,\n        uint256 _cost,\n        uint256 _maxSupply,\n        uint256 _allowMintingOn,\n        string memory _initBaseURI,\n        string memory _initNotRevealedUri,\n        address payable _artist,\n        uint256 _royalityFee\n    ) ERC721(_name, _symbol) {\n        if (_allowMintingOn > block.timestamp) {\n            allowMintingAfter = _allowMintingOn - block.timestamp;\n        }\n        artist = _artist;\n        royalityFee = _royalityFee;\n        cost = _cost;\n        maxSupply = _maxSupply;\n        timeDeployed = block.timestamp;\n\n        setBaseURI(_initBaseURI);\n        setNotRevealedURI(_initNotRevealedUri);\n    }\n\n    // internal\n    function _baseURI() internal view virtual override returns (string memory) {\n        return baseURI;\n    }\n\n    // public\n    function mint(uint256 _mintAmount) public payable nonReentrant {\n        require(\n            block.timestamp >= timeDeployed + allowMintingAfter,\n            \"Minting not allowed yet\"\n        );\n\n        require(\n            balanceOf(msg.sender) <= maxMintAmount,\n            \"Max 100 mint per account\"\n        );\n        require(\n            _mintAmount > 0 && _mintAmount <= maxMintAmount,\n            \"Not a valid mint amount. Try 1 mint a time.\"\n        );\n\n        uint256 supply = totalSupply();\n        require(!isPaused);\n        require(\n            supply + _mintAmount <= maxSupply,\n            \"The mint amount you entered exceeds total supply. Enter a smaller amount.\"\n        );\n\n        if (msg.sender != owner()) {\n            require(msg.value >= cost * _mintAmount);\n        }\n\n        uint256 royality = (msg.value * royalityFee) / 100;\n        _payRoyality(royality);\n\n        for (uint256 i = 1; i <= _mintAmount; i++) {\n            _safeMint(msg.sender, supply + i);\n        }\n    }\n\n    function giftMint(uint256 _mintAmount, address _to) public onlyOwner {\n        require(\n            _mintAmount > 0 && _mintAmount <= maxMintAmount,\n            \"Not a valid mint amount. Try 1 mint a time.\"\n        );\n        uint256 supply = totalSupply();\n        require(!isPaused);\n        require(\n            supply + _mintAmount <= maxSupply,\n            \"The mint amount you entered exceeds total supply. Enter a smaller amount.\"\n        );\n\n        for (uint256 i = 1; i <= _mintAmount; i++) {\n            giftMintCount = giftMintCount + 1;\n            giftReceivers[giftMintCount - 1] = _to;\n            _safeMint(_to, supply + i);\n        }\n    }\n\n    function walletOfOwner(address _owner)\n        public\n        view\n        returns (uint256[] memory)\n    {\n        uint256 ownerTokenCount = balanceOf(_owner);\n        uint256[] memory tokenIds = new uint256[](ownerTokenCount);\n        for (uint256 i; i < ownerTokenCount; i++) {\n            tokenIds[i] = tokenOfOwnerByIndex(_owner, i);\n        }\n        return tokenIds;\n    }\n\n    function tokenURI(uint256 tokenId)\n        public\n        view\n        virtual\n        override\n        returns (string memory)\n    {\n        require(\n            _exists(tokenId),\n            \"ERC721Metadata: URI query for nonexistent token\"\n        );\n\n        if (isRevealed == false) {\n            return notRevealedUri;\n        }\n\n        string memory currentBaseURI = _baseURI();\n        return\n            bytes(currentBaseURI).length > 0\n                ? string(\n                    abi.encodePacked(\n                        currentBaseURI,\n                        tokenId.toString(),\n                        baseExtension\n                    )\n                )\n                : \"\";\n    }\n\n    function getSecondsUntilMinting() public view returns (uint256) {\n        if (block.timestamp < timeDeployed + allowMintingAfter) {\n            return (timeDeployed + allowMintingAfter) - block.timestamp;\n        } else {\n            return 0;\n        }\n    }\n\n    // Only Owner Functions\n    function setIsRevealed(bool _state) public onlyOwner {\n        isRevealed = _state;\n    }\n\n    function setCost(uint256 _newCost) public onlyOwner {\n        cost = _newCost;\n    }\n\n    function setmaxMintAmount(uint256 _newmaxMintAmount) public onlyOwner {\n        maxMintAmount = _newmaxMintAmount;\n    }\n\n    function setNotRevealedURI(string memory _notRevealedURI) public onlyOwner {\n        notRevealedUri = _notRevealedURI;\n    }\n\n    function setBaseURI(string memory _newBaseURI) public onlyOwner {\n        baseURI = _newBaseURI;\n    }\n\n    function setBaseExtension(string memory _newBaseExtension)\n        public\n        onlyOwner\n    {\n        baseExtension = _newBaseExtension;\n    }\n\n    function setIsPaused(bool _state) public onlyOwner {\n        isPaused = _state;\n    }\n\n    function withdraw() public payable onlyOwner {\n        (bool success, ) = payable(msg.sender).call{\n            value: address(this).balance\n        }(\"\");\n        require(success);\n    }\n\n    function _payRoyality(uint256 _royalityFee) internal {\n        (bool success1, ) = payable(artist).call{value: _royalityFee}(\"\");\n        require(success1);\n    }\n\n    function setApprovalForAll(address operator, bool approved)\n        public\n        override(ERC721, IERC721)\n        onlyAllowedOperatorApproval(operator)\n    {\n        super.setApprovalForAll(operator, approved);\n    }\n\n    function approve(address operator, uint256 tokenId)\n        public\n        override(ERC721, IERC721)\n        onlyAllowedOperatorApproval(operator)\n    {\n        super.approve(operator, tokenId);\n    }\n\n    function transferFrom(\n        address from,\n        address to,\n        uint256 tokenId\n    ) public payable override(ERC721, IERC721) onlyAllowedOperator(from) {\n        require(\n            _isApprovedOrOwner(_msgSender(), tokenId),\n            \"ERC721: transfer caller is not owner nor approved\"\n        );\n\n        if (msg.value > 0) {\n            uint256 royality = (msg.value * royalityFee) / 100;\n            _payRoyality(royality);\n\n            (bool success2, ) = payable(from).call{value: msg.value - royality}(\n                \"\"\n            );\n            require(success2);\n\n            emit Sale(from, to, msg.value);\n        }\n\n        _transfer(from, to, tokenId);\n    }\n\n    function safeTransferFrom(\n        address from,\n        address to,\n        uint256 tokenId\n    ) public payable override(ERC721, IERC721) onlyAllowedOperator(from) {\n        if (msg.value > 0) {\n            uint256 royality = (msg.value * royalityFee) / 100;\n            _payRoyality(royality);\n\n            (bool success2, ) = payable(from).call{value: msg.value - royality}(\n                \"\"\n            );\n            require(success2);\n\n            emit Sale(from, to, msg.value);\n        }\n\n        safeTransferFrom(from, to, tokenId, \"\");\n    }\n\n    function safeTransferFrom(\n        address from,\n        address to,\n        uint256 tokenId,\n        bytes memory _data\n    ) public payable override(ERC721, IERC721) onlyAllowedOperator(from) {\n        require(\n            _isApprovedOrOwner(_msgSender(), tokenId),\n            \"ERC721: transfer caller is not owner nor approved\"\n        );\n\n        if (msg.value > 0) {\n            uint256 royality = (msg.value * royalityFee) / 100;\n            _payRoyality(royality);\n\n            (bool success2, ) = payable(from).call{value: msg.value - royality}(\n                \"\"\n            );\n            require(success2);\n\n            emit Sale(from, to, msg.value);\n        }\n\n        _safeTransfer(from, to, tokenId, _data);\n    }\n\n    function isApprovedForAll(address _owner, address _operator)\n        public\n        view\n        override(ERC721, IERC721)\n        returns (bool isOperator)\n    {\n        //if OpenSea's ERC721 Proxy Address is detected, auto-return true\n        // for Polygon's Mumbai testnet, use 0xff7Ca10aF37178BdD056628eF42fD7F799fAc77c\n        if (_operator == address(0x58807baD0B376efc12F5AD86aAc70E78ed67deaE)) {\n            return true;\n        }\n        //otherwise, use use the default ERC721.isApprovedForAll()\n        return ERC721.isApprovedForAll(_owner, _operator);\n    }\n\n    function _msgSender() internal view override returns (address sender) {\n        return ContextMixin.msgSender();\n    }\n}\n",
  "sourcePath": "/Users/bowenzhang/pretty_faces_paperwhite/pretty_faces_paperwhite/src/contracts/PrettyFaces.sol",
  "compiler": {
    "name": "solc",
    "version": "0.8.17+commit.8df45f5f.Emscripten.clang"
  },
  "schemaVersion": "3.4.11",
  "updatedAt": "2023-01-20T19:07:11.660Z",
  "devdoc": {
    "kind": "dev",
    "methods": {},
    "version": 1
  },
  "userdoc": {
    "kind": "user",
    "methods": {},
    "version": 1
  }
}