{
  "contractName": "PrettyFaces",
  "abi": [
    {
      "inputs": [
        {
          "internalType": "string",
          "name": "_name",
          "type": "string"
        },
        {
          "internalType": "string",
          "name": "_symbol",
          "type": "string"
        },
        {
          "internalType": "uint256",
          "name": "_cost",
          "type": "uint256"
        },
        {
          "internalType": "uint256",
          "name": "_maxSupply",
          "type": "uint256"
        },
        {
          "internalType": "uint256",
          "name": "_allowMintingOn",
          "type": "uint256"
        },
        {
          "internalType": "string",
          "name": "_initBaseURI",
          "type": "string"
        },
        {
          "internalType": "string",
          "name": "_initNotRevealedUri",
          "type": "string"
        },
        {
          "internalType": "address payable",
          "name": "_artist",
          "type": "address"
        },
        {
          "internalType": "uint256",
          "name": "_royalityFee",
          "type": "uint256"
        }
      ],
      "stateMutability": "nonpayable",
      "type": "constructor"
    },
    {
      "inputs": [
        {
          "internalType": "address",
          "name": "operator",
          "type": "address"
        }
      ],
      "name": "OperatorNotAllowed",
      "type": "error"
    },
    {
      "anonymous": false,
      "inputs": [
        {
          "indexed": true,
          "internalType": "address",
          "name": "owner",
          "type": "address"
        },
        {
          "indexed": true,
          "internalType": "address",
          "name": "approved",
          "type": "address"
        },
        {
          "indexed": true,
          "internalType": "uint256",
          "name": "tokenId",
          "type": "uint256"
        }
      ],
      "name": "Approval",
      "type": "event"
    },
    {
      "anonymous": false,
      "inputs": [
        {
          "indexed": true,
          "internalType": "address",
          "name": "owner",
          "type": "address"
        },
        {
          "indexed": true,
          "internalType": "address",
          "name": "operator",
          "type": "address"
        },
        {
          "indexed": false,
          "internalType": "bool",
          "name": "approved",
          "type": "bool"
        }
      ],
      "name": "ApprovalForAll",
      "type": "event"
    },
    {
      "anonymous": false,
      "inputs": [
        {
          "indexed": false,
          "internalType": "address",
          "name": "userAddress",
          "type": "address"
        },
        {
          "indexed": false,
          "internalType": "address payable",
          "name": "relayerAddress",
          "type": "address"
        },
        {
          "indexed": false,
          "internalType": "bytes",
          "name": "functionSignature",
          "type": "bytes"
        }
      ],
      "name": "MetaTransactionExecuted",
      "type": "event"
    },
    {
      "anonymous": false,
      "inputs": [
        {
          "indexed": true,
          "internalType": "address",
          "name": "previousOwner",
          "type": "address"
        },
        {
          "indexed": true,
          "internalType": "address",
          "name": "newOwner",
          "type": "address"
        }
      ],
      "name": "OwnershipTransferred",
      "type": "event"
    },
    {
      "anonymous": false,
      "inputs": [
        {
          "indexed": false,
          "internalType": "address",
          "name": "from",
          "type": "address"
        },
        {
          "indexed": false,
          "internalType": "address",
          "name": "to",
          "type": "address"
        },
        {
          "indexed": false,
          "internalType": "uint256",
          "name": "value",
          "type": "uint256"
        }
      ],
      "name": "Sale",
      "type": "event"
    },
    {
      "anonymous": false,
      "inputs": [
        {
          "indexed": true,
          "internalType": "address",
          "name": "from",
          "type": "address"
        },
        {
          "indexed": true,
          "internalType": "address",
          "name": "to",
          "type": "address"
        },
        {
          "indexed": true,
          "internalType": "uint256",
          "name": "tokenId",
          "type": "uint256"
        }
      ],
      "name": "Transfer",
      "type": "event"
    },
    {
      "inputs": [],
      "name": "ERC712_VERSION",
      "outputs": [
        {
          "internalType": "string",
          "name": "",
          "type": "string"
        }
      ],
      "stateMutability": "view",
      "type": "function",
      "constant": true
    },
    {
      "inputs": [],
      "name": "OPERATOR_FILTER_REGISTRY",
      "outputs": [
        {
          "internalType": "contract IOperatorFilterRegistry",
          "name": "",
          "type": "address"
        }
      ],
      "stateMutability": "view",
      "type": "function",
      "constant": true
    },
    {
      "inputs": [],
      "name": "allowMintingAfter",
      "outputs": [
        {
          "internalType": "uint256",
          "name": "",
          "type": "uint256"
        }
      ],
      "stateMutability": "view",
      "type": "function",
      "constant": true
    },
    {
      "inputs": [],
      "name": "artist",
      "outputs": [
        {
          "internalType": "address payable",
          "name": "",
          "type": "address"
        }
      ],
      "stateMutability": "view",
      "type": "function",
      "constant": true
    },
    {
      "inputs": [
        {
          "internalType": "address",
          "name": "owner",
          "type": "address"
        }
      ],
      "name": "balanceOf",
      "outputs": [
        {
          "internalType": "uint256",
          "name": "",
          "type": "uint256"
        }
      ],
      "stateMutability": "view",
      "type": "function",
      "constant": true
    },
    {
      "inputs": [],
      "name": "baseExtension",
      "outputs": [
        {
          "internalType": "string",
          "name": "",
          "type": "string"
        }
      ],
      "stateMutability": "view",
      "type": "function",
      "constant": true
    },
    {
      "inputs": [],
      "name": "cost",
      "outputs": [
        {
          "internalType": "uint256",
          "name": "",
          "type": "uint256"
        }
      ],
      "stateMutability": "view",
      "type": "function",
      "constant": true
    },
    {
      "inputs": [
        {
          "internalType": "address",
          "name": "userAddress",
          "type": "address"
        },
        {
          "internalType": "bytes",
          "name": "functionSignature",
          "type": "bytes"
        },
        {
          "internalType": "bytes32",
          "name": "sigR",
          "type": "bytes32"
        },
        {
          "internalType": "bytes32",
          "name": "sigS",
          "type": "bytes32"
        },
        {
          "internalType": "uint8",
          "name": "sigV",
          "type": "uint8"
        }
      ],
      "name": "executeMetaTransaction",
      "outputs": [
        {
          "internalType": "bytes",
          "name": "",
          "type": "bytes"
        }
      ],
      "stateMutability": "payable",
      "type": "function",
      "payable": true
    },
    {
      "inputs": [
        {
          "internalType": "uint256",
          "name": "tokenId",
          "type": "uint256"
        }
      ],
      "name": "getApproved",
      "outputs": [
        {
          "internalType": "address",
          "name": "",
          "type": "address"
        }
      ],
      "stateMutability": "view",
      "type": "function",
      "constant": true
    },
    {
      "inputs": [],
      "name": "getChainId",
      "outputs": [
        {
          "internalType": "uint256",
          "name": "",
          "type": "uint256"
        }
      ],
      "stateMutability": "view",
      "type": "function",
      "constant": true
    },
    {
      "inputs": [],
      "name": "getDomainSeperator",
      "outputs": [
        {
          "internalType": "bytes32",
          "name": "",
          "type": "bytes32"
        }
      ],
      "stateMutability": "view",
      "type": "function",
      "constant": true
    },
    {
      "inputs": [
        {
          "internalType": "address",
          "name": "user",
          "type": "address"
        }
      ],
      "name": "getNonce",
      "outputs": [
        {
          "internalType": "uint256",
          "name": "nonce",
          "type": "uint256"
        }
      ],
      "stateMutability": "view",
      "type": "function",
      "constant": true
    },
    {
      "inputs": [],
      "name": "giftMintCount",
      "outputs": [
        {
          "internalType": "uint256",
          "name": "",
          "type": "uint256"
        }
      ],
      "stateMutability": "view",
      "type": "function",
      "constant": true
    },
    {
      "inputs": [
        {
          "internalType": "uint256",
          "name": "",
          "type": "uint256"
        }
      ],
      "name": "giftReceivers",
      "outputs": [
        {
          "internalType": "address",
          "name": "",
          "type": "address"
        }
      ],
      "stateMutability": "view",
      "type": "function",
      "constant": true
    },
    {
      "inputs": [],
      "name": "isPaused",
      "outputs": [
        {
          "internalType": "bool",
          "name": "",
          "type": "bool"
        }
      ],
      "stateMutability": "view",
      "type": "function",
      "constant": true
    },
    {
      "inputs": [],
      "name": "isRevealed",
      "outputs": [
        {
          "internalType": "bool",
          "name": "",
          "type": "bool"
        }
      ],
      "stateMutability": "view",
      "type": "function",
      "constant": true
    },
    {
      "inputs": [],
      "name": "maxMintAmount",
      "outputs": [
        {
          "internalType": "uint256",
          "name": "",
          "type": "uint256"
        }
      ],
      "stateMutability": "view",
      "type": "function",
      "constant": true
    },
    {
      "inputs": [],
      "name": "maxSupply",
      "outputs": [
        {
          "internalType": "uint256",
          "name": "",
          "type": "uint256"
        }
      ],
      "stateMutability": "view",
      "type": "function",
      "constant": true
    },
    {
      "inputs": [],
      "name": "name",
      "outputs": [
        {
          "internalType": "string",
          "name": "",
          "type": "string"
        }
      ],
      "stateMutability": "view",
      "type": "function",
      "constant": true
    },
    {
      "inputs": [],
      "name": "notRevealedUri",
      "outputs": [
        {
          "internalType": "string",
          "name": "",
          "type": "string"
        }
      ],
      "stateMutability": "view",
      "type": "function",
      "constant": true
    },
    {
      "inputs": [],
      "name": "owner",
      "outputs": [
        {
          "internalType": "address",
          "name": "",
          "type": "address"
        }
      ],
      "stateMutability": "view",
      "type": "function",
      "constant": true
    },
    {
      "inputs": [
        {
          "internalType": "uint256",
          "name": "tokenId",
          "type": "uint256"
        }
      ],
      "name": "ownerOf",
      "outputs": [
        {
          "internalType": "address",
          "name": "",
          "type": "address"
        }
      ],
      "stateMutability": "view",
      "type": "function",
      "constant": true
    },
    {
      "inputs": [],
      "name": "renounceOwnership",
      "outputs": [],
      "stateMutability": "nonpayable",
      "type": "function"
    },
    {
      "inputs": [],
      "name": "royalityFee",
      "outputs": [
        {
          "internalType": "uint256",
          "name": "",
          "type": "uint256"
        }
      ],
      "stateMutability": "view",
      "type": "function",
      "constant": true
    },
    {
      "inputs": [
        {
          "internalType": "bytes4",
          "name": "interfaceId",
          "type": "bytes4"
        }
      ],
      "name": "supportsInterface",
      "outputs": [
        {
          "internalType": "bool",
          "name": "",
          "type": "bool"
        }
      ],
      "stateMutability": "view",
      "type": "function",
      "constant": true
    },
    {
      "inputs": [],
      "name": "symbol",
      "outputs": [
        {
          "internalType": "string",
          "name": "",
          "type": "string"
        }
      ],
      "stateMutability": "view",
      "type": "function",
      "constant": true
    },
    {
      "inputs": [],
      "name": "timeDeployed",
      "outputs": [
        {
          "internalType": "uint256",
          "name": "",
          "type": "uint256"
        }
      ],
      "stateMutability": "view",
      "type": "function",
      "constant": true
    },
    {
      "inputs": [
        {
          "internalType": "uint256",
          "name": "index",
          "type": "uint256"
        }
      ],
      "name": "tokenByIndex",
      "outputs": [
        {
          "internalType": "uint256",
          "name": "",
          "type": "uint256"
        }
      ],
      "stateMutability": "view",
      "type": "function",
      "constant": true
    },
    {
      "inputs": [
        {
          "internalType": "address",
          "name": "owner",
          "type": "address"
        },
        {
          "internalType": "uint256",
          "name": "index",
          "type": "uint256"
        }
      ],
      "name": "tokenOfOwnerByIndex",
      "outputs": [
        {
          "internalType": "uint256",
          "name": "",
          "type": "uint256"
        }
      ],
      "stateMutability": "view",
      "type": "function",
      "constant": true
    },
    {
      "inputs": [],
      "name": "totalSupply",
      "outputs": [
        {
          "internalType": "uint256",
          "name": "",
          "type": "uint256"
        }
      ],
      "stateMutability": "view",
      "type": "function",
      "constant": true
    },
    {
      "inputs": [
        {
          "internalType": "address",
          "name": "newOwner",
          "type": "address"
        }
      ],
      "name": "transferOwnership",
      "outputs": [],
      "stateMutability": "nonpayable",
      "type": "function"
    },
    {
      "inputs": [
        {
          "internalType": "uint256",
          "name": "_mintAmount",
          "type": "uint256"
        }
      ],
      "name": "mint",
      "outputs": [],
      "stateMutability": "payable",
      "type": "function",
      "payable": true
    },
    {
      "inputs": [
        {
          "internalType": "uint256",
          "name": "_mintAmount",
          "type": "uint256"
        },
        {
          "internalType": "address",
          "name": "_to",
          "type": "address"
        }
      ],
      "name": "giftMint",
      "outputs": [],
      "stateMutability": "nonpayable",
      "type": "function"
    },
    {
      "inputs": [
        {
          "internalType": "address",
          "name": "_owner",
          "type": "address"
        }
      ],
      "name": "walletOfOwner",
      "outputs": [
        {
          "internalType": "uint256[]",
          "name": "",
          "type": "uint256[]"
        }
      ],
      "stateMutability": "view",
      "type": "function",
      "constant": true
    },
    {
      "inputs": [
        {
          "internalType": "uint256",
          "name": "tokenId",
          "type": "uint256"
        }
      ],
      "name": "tokenURI",
      "outputs": [
        {
          "internalType": "string",
          "name": "",
          "type": "string"
        }
      ],
      "stateMutability": "view",
      "type": "function",
      "constant": true
    },
    {
      "inputs": [],
      "name": "getSecondsUntilMinting",
      "outputs": [
        {
          "internalType": "uint256",
          "name": "",
          "type": "uint256"
        }
      ],
      "stateMutability": "view",
      "type": "function",
      "constant": true
    },
    {
      "inputs": [
        {
          "internalType": "bool",
          "name": "_state",
          "type": "bool"
        }
      ],
      "name": "setIsRevealed",
      "outputs": [],
      "stateMutability": "nonpayable",
      "type": "function"
    },
    {
      "inputs": [
        {
          "internalType": "uint256",
          "name": "_newCost",
          "type": "uint256"
        }
      ],
      "name": "setCost",
      "outputs": [],
      "stateMutability": "nonpayable",
      "type": "function"
    },
    {
      "inputs": [
        {
          "internalType": "uint256",
          "name": "_newmaxMintAmount",
          "type": "uint256"
        }
      ],
      "name": "setmaxMintAmount",
      "outputs": [],
      "stateMutability": "nonpayable",
      "type": "function"
    },
    {
      "inputs": [
        {
          "internalType": "string",
          "name": "_notRevealedURI",
          "type": "string"
        }
      ],
      "name": "setNotRevealedURI",
      "outputs": [],
      "stateMutability": "nonpayable",
      "type": "function"
    },
    {
      "inputs": [
        {
          "internalType": "string",
          "name": "_newBaseURI",
          "type": "string"
        }
      ],
      "name": "setBaseURI",
      "outputs": [],
      "stateMutability": "nonpayable",
      "type": "function"
    },
    {
      "inputs": [
        {
          "internalType": "string",
          "name": "_newBaseExtension",
          "type": "string"
        }
      ],
      "name": "setBaseExtension",
      "outputs": [],
      "stateMutability": "nonpayable",
      "type": "function"
    },
    {
      "inputs": [
        {
          "internalType": "bool",
          "name": "_state",
          "type": "bool"
        }
      ],
      "name": "setIsPaused",
      "outputs": [],
      "stateMutability": "nonpayable",
      "type": "function"
    },
    {
      "inputs": [],
      "name": "withdraw",
      "outputs": [],
      "stateMutability": "payable",
      "type": "function",
      "payable": true
    },
    {
      "inputs": [
        {
          "internalType": "address",
          "name": "operator",
          "type": "address"
        },
        {
          "internalType": "bool",
          "name": "approved",
          "type": "bool"
        }
      ],
      "name": "setApprovalForAll",
      "outputs": [],
      "stateMutability": "nonpayable",
      "type": "function"
    },
    {
      "inputs": [
        {
          "internalType": "address",
          "name": "operator",
          "type": "address"
        },
        {
          "internalType": "uint256",
          "name": "tokenId",
          "type": "uint256"
        }
      ],
      "name": "approve",
      "outputs": [],
      "stateMutability": "nonpayable",
      "type": "function"
    },
    {
      "inputs": [
        {
          "internalType": "address",
          "name": "from",
          "type": "address"
        },
        {
          "internalType": "address",
          "name": "to",
          "type": "address"
        },
        {
          "internalType": "uint256",
          "name": "tokenId",
          "type": "uint256"
        }
      ],
      "name": "transferFrom",
      "outputs": [],
      "stateMutability": "payable",
      "type": "function",
      "payable": true
    },
    {
      "inputs": [
        {
          "internalType": "address",
          "name": "from",
          "type": "address"
        },
        {
          "internalType": "address",
          "name": "to",
          "type": "address"
        },
        {
          "internalType": "uint256",
          "name": "tokenId",
          "type": "uint256"
        }
      ],
      "name": "safeTransferFrom",
      "outputs": [],
      "stateMutability": "payable",
      "type": "function",
      "payable": true
    },
    {
      "inputs": [
        {
          "internalType": "address",
          "name": "from",
          "type": "address"
        },
        {
          "internalType": "address",
          "name": "to",
          "type": "address"
        },
        {
          "internalType": "uint256",
          "name": "tokenId",
          "type": "uint256"
        },
        {
          "internalType": "bytes",
          "name": "_data",
          "type": "bytes"
        }
      ],
      "name": "safeTransferFrom",
      "outputs": [],
      "stateMutability": "payable",
      "type": "function",
      "payable": true
    },
    {
      "inputs": [
        {
          "internalType": "address",
          "name": "_owner",
          "type": "address"
        },
        {
          "internalType": "address",
          "name": "_operator",
          "type": "address"
        }
      ],
      "name": "isApprovedForAll",
      "outputs": [
        {
          "internalType": "bool",
          "name": "isOperator",
          "type": "bool"
        }
      ],
      "stateMutability": "view",
      "type": "function",
      "constant": true
    }
  ],
  "bytecode": "0x60806040526000600c60006101000a81548160ff0219169083151502179055506040518060400160405280600581526020017f2e6a736f6e00000000000000000000000000000000000000000000000000000081525060109081620000659190620008f6565b50600a60135560006015556000601660006101000a81548160ff0219169083151502179055506001601660016101000a81548160ff021916908315150217905550348015620000b357600080fd5b5060405162006cb738038062006cb78339818101604052810190620000d9919062000bd7565b733cc6cdda760b79bafa08df41ecfa224f810dceb660018a8a8160009081620001039190620008f6565b508060019081620001159190620008f6565b505050620001386200012c620003e360201b60201c565b620003ff60201b60201c565b6001600b8190555060006daaeb6d7670e522a718067333cd4e73ffffffffffffffffffffffffffffffffffffffff163b111562000335578015620001fb576daaeb6d7670e522a718067333cd4e73ffffffffffffffffffffffffffffffffffffffff16637d3e3dbe30846040518363ffffffff1660e01b8152600401620001c192919062000d57565b600060405180830381600087803b158015620001dc57600080fd5b505af1158015620001f1573d6000803e3d6000fd5b5050505062000334565b600073ffffffffffffffffffffffffffffffffffffffff168273ffffffffffffffffffffffffffffffffffffffff1614620002b5576daaeb6d7670e522a718067333cd4e73ffffffffffffffffffffffffffffffffffffffff1663a0af290330846040518363ffffffff1660e01b81526004016200027b92919062000d57565b600060405180830381600087803b1580156200029657600080fd5b505af1158015620002ab573d6000803e3d6000fd5b5050505062000333565b6daaeb6d7670e522a718067333cd4e73ffffffffffffffffffffffffffffffffffffffff16634420e486306040518263ffffffff1660e01b8152600401620002fe919062000d84565b600060405180830381600087803b1580156200031957600080fd5b505af11580156200032e573d6000803e3d6000fd5b505050505b5b5b505042851115620003555742856200034e919062000dd0565b6015819055505b81601860006101000a81548173ffffffffffffffffffffffffffffffffffffffff021916908373ffffffffffffffffffffffffffffffffffffffff16021790555080601981905550866011819055508560128190555042601481905550620003c384620004c560201b60201c565b620003d483620004ea60201b60201c565b50505050505050505062000e8e565b6000620003fa6200050f60201b620021d71760201c565b905090565b6000600a60009054906101000a900473ffffffffffffffffffffffffffffffffffffffff16905081600a60006101000a81548173ffffffffffffffffffffffffffffffffffffffff021916908373ffffffffffffffffffffffffffffffffffffffff1602179055508173ffffffffffffffffffffffffffffffffffffffff168173ffffffffffffffffffffffffffffffffffffffff167f8be0079c531659141344cd1fd0a4f28419497f9722a3daafe3b4186f6b6457e060405160405180910390a35050565b620004d5620005c160201b60201c565b80600f9081620004e69190620008f6565b5050565b620004fa620005c160201b60201c565b80601790816200050b9190620008f6565b5050565b60003073ffffffffffffffffffffffffffffffffffffffff163373ffffffffffffffffffffffffffffffffffffffff1603620005ba57600080368080601f016020809104026020016040519081016040528093929190818152602001838380828437600081840152601f19601f820116905080830192505050505050509050600080369050905073ffffffffffffffffffffffffffffffffffffffff818301511692505050620005be565b3390505b90565b620005d1620003e360201b60201c565b73ffffffffffffffffffffffffffffffffffffffff16620005f76200065260201b60201c565b73ffffffffffffffffffffffffffffffffffffffff161462000650576040517f08c379a0000000000000000000000000000000000000000000000000000000008152600401620006479062000e6c565b60405180910390fd5b565b6000600a60009054906101000a900473ffffffffffffffffffffffffffffffffffffffff16905090565b600081519050919050565b7f4e487b7100000000000000000000000000000000000000000000000000000000600052604160045260246000fd5b7f4e487b7100000000000000000000000000000000000000000000000000000000600052602260045260246000fd5b60006002820490506001821680620006fe57607f821691505b602082108103620007145762000713620006b6565b5b50919050565b60008190508160005260206000209050919050565b60006020601f8301049050919050565b600082821b905092915050565b6000600883026200077e7fffffffffffffffffffffffffffffffffffffffffffffffffffffffffffffffff826200073f565b6200078a86836200073f565b95508019841693508086168417925050509392505050565b6000819050919050565b6000819050919050565b6000620007d7620007d1620007cb84620007a2565b620007ac565b620007a2565b9050919050565b6000819050919050565b620007f383620007b6565b6200080b6200080282620007de565b8484546200074c565b825550505050565b600090565b6200082262000813565b6200082f818484620007e8565b505050565b5b8181101562000857576200084b60008262000818565b60018101905062000835565b5050565b601f821115620008a65762000870816200071a565b6200087b846200072f565b810160208510156200088b578190505b620008a36200089a856200072f565b83018262000834565b50505b505050565b600082821c905092915050565b6000620008cb60001984600802620008ab565b1980831691505092915050565b6000620008e68383620008b8565b9150826002028217905092915050565b62000901826200067c565b67ffffffffffffffff8111156200091d576200091c62000687565b5b620009298254620006e5565b620009368282856200085b565b600060209050601f8311600181146200096e576000841562000959578287015190505b620009658582620008d8565b865550620009d5565b601f1984166200097e866200071a565b60005b82811015620009a85784890151825560018201915060208501945060208101905062000981565b86831015620009c85784890151620009c4601f891682620008b8565b8355505b6001600288020188555050505b505050505050565b6000604051905090565b600080fd5b600080fd5b600080fd5b600080fd5b6000601f19601f8301169050919050565b62000a1782620009fb565b810181811067ffffffffffffffff8211171562000a395762000a3862000687565b5b80604052505050565b600062000a4e620009dd565b905062000a5c828262000a0c565b919050565b600067ffffffffffffffff82111562000a7f5762000a7e62000687565b5b62000a8a82620009fb565b9050602081019050919050565b60005b8381101562000ab757808201518184015260208101905062000a9a565b60008484015250505050565b600062000ada62000ad48462000a61565b62000a42565b90508281526020810184848401111562000af95762000af8620009f6565b5b62000b0684828562000a97565b509392505050565b600082601f83011262000b265762000b25620009f1565b5b815162000b3884826020860162000ac3565b91505092915050565b62000b4c81620007a2565b811462000b5857600080fd5b50565b60008151905062000b6c8162000b41565b92915050565b600073ffffffffffffffffffffffffffffffffffffffff82169050919050565b600062000b9f8262000b72565b9050919050565b62000bb18162000b92565b811462000bbd57600080fd5b50565b60008151905062000bd18162000ba6565b92915050565b60008060008060008060008060006101208a8c03121562000bfd5762000bfc620009e7565b5b60008a015167ffffffffffffffff81111562000c1e5762000c1d620009ec565b5b62000c2c8c828d0162000b0e565b99505060208a015167ffffffffffffffff81111562000c505762000c4f620009ec565b5b62000c5e8c828d0162000b0e565b985050604062000c718c828d0162000b5b565b975050606062000c848c828d0162000b5b565b965050608062000c978c828d0162000b5b565b95505060a08a015167ffffffffffffffff81111562000cbb5762000cba620009ec565b5b62000cc98c828d0162000b0e565b94505060c08a015167ffffffffffffffff81111562000ced5762000cec620009ec565b5b62000cfb8c828d0162000b0e565b93505060e062000d0e8c828d0162000bc0565b92505061010062000d228c828d0162000b5b565b9150509295985092959850929598565b600062000d3f8262000b72565b9050919050565b62000d518162000d32565b82525050565b600060408201905062000d6e600083018562000d46565b62000d7d602083018462000d46565b9392505050565b600060208201905062000d9b600083018462000d46565b92915050565b7f4e487b7100000000000000000000000000000000000000000000000000000000600052601160045260246000fd5b600062000ddd82620007a2565b915062000dea83620007a2565b925082820390508181111562000e055762000e0462000da1565b5b92915050565b600082825260208201905092915050565b7f4f776e61626c653a2063616c6c6572206973206e6f7420746865206f776e6572600082015250565b600062000e5460208362000e0b565b915062000e618262000e1c565b602082019050919050565b6000602082019050818103600083015262000e878162000e45565b9050919050565b615e198062000e9e6000396000f3fe6080604052600436106102c95760003560e01c806344a0d68a1161017557806395d89b41116100dc578063c668286211610095578063da3ef23f1161006f578063da3ef23f14610ac0578063e985e9c514610ae9578063f2c4ce1e14610b26578063f2fde38b14610b4f576102c9565b8063c668286214610a2d578063c87b56dd14610a58578063d5abeb0114610a95576102c9565b806395d89b411461094b578063a0712d6814610976578063a22cb46514610992578063a75052cb146109bb578063b187bd26146109e6578063b88d4fde14610a11576102c9565b806370a082311161012e57806370a082311461084f578063715018a61461088c5780637f00c7a6146108a3578063872bdcdb146108cc5780638da5cb5b146108f75780638f566abb14610922576102c9565b806344a0d68a1461072f57806349a5980a146107585780634f6ccce71461078157806354214f69146107be57806355f804b3146107e95780636352211e14610812576102c9565b8063215aece411610234578063326bb4ad116101ed57806341f43434116101c757806341f434341461068057806342842e0e146106ab578063438b6300146106c757806343bc161214610704576102c9565b8063326bb4ad146106205780633408e4701461064b5780633ccfd60b14610676576102c9565b8063215aece4146104f9578063239c70ae1461053657806323b872dd14610561578063240976bf1461057d5780632d0335ab146105a65780632f745c59146105e3576102c9565b80630f7e5970116102865780630f7e5970146103f757806313faede6146104225780631579ce871461044d57806318160ddd1461047857806319188c35146104a357806320379ee5146104ce576102c9565b806301ffc9a7146102ce57806306fdde031461030b578063081812fc14610336578063081c8c4414610373578063095ea7b31461039e5780630c53c51c146103c7575b600080fd5b3480156102da57600080fd5b506102f560048036038101906102f09190613d2f565b610b78565b6040516103029190613d77565b60405180910390f35b34801561031757600080fd5b50610320610bf2565b60405161032d9190613e22565b60405180910390f35b34801561034257600080fd5b5061035d60048036038101906103589190613e7a565b610c84565b60405161036a9190613ee8565b60405180910390f35b34801561037f57600080fd5b50610388610cca565b6040516103959190613e22565b60405180910390f35b3480156103aa57600080fd5b506103c560048036038101906103c09190613f2f565b610d58565b005b6103e160048036038101906103dc9190614113565b610d71565b6040516103ee91906141ff565b60405180910390f35b34801561040357600080fd5b5061040c610fdc565b6040516104199190613e22565b60405180910390f35b34801561042e57600080fd5b50610437611015565b6040516104449190614230565b60405180910390f35b34801561045957600080fd5b5061046261101b565b60405161046f9190614230565b60405180910390f35b34801561048457600080fd5b5061048d611021565b60405161049a9190614230565b60405180910390f35b3480156104af57600080fd5b506104b861102e565b6040516104c59190614230565b60405180910390f35b3480156104da57600080fd5b506104e3611034565b6040516104f0919061425a565b60405180910390f35b34801561050557600080fd5b50610520600480360381019061051b9190613e7a565b61103e565b60405161052d9190613ee8565b60405180910390f35b34801561054257600080fd5b5061054b611071565b6040516105589190614230565b60405180910390f35b61057b60048036038101906105769190614275565b611077565b005b34801561058957600080fd5b506105a4600480360381019061059f91906142f4565b611205565b005b3480156105b257600080fd5b506105cd60048036038101906105c89190614321565b61122a565b6040516105da9190614230565b60405180910390f35b3480156105ef57600080fd5b5061060a60048036038101906106059190613f2f565b611273565b6040516106179190614230565b60405180910390f35b34801561062c57600080fd5b50610635611318565b6040516106429190614230565b60405180910390f35b34801561065757600080fd5b5061066061131e565b60405161066d9190614230565b60405180910390f35b61067e61132b565b005b34801561068c57600080fd5b506106956113ac565b6040516106a291906143ad565b60405180910390f35b6106c560048036038101906106c09190614275565b6113be565b005b3480156106d357600080fd5b506106ee60048036038101906106e99190614321565b61150c565b6040516106fb9190614486565b60405180910390f35b34801561071057600080fd5b506107196115ba565b60405161072691906144c9565b60405180910390f35b34801561073b57600080fd5b5061075660048036038101906107519190613e7a565b6115e0565b005b34801561076457600080fd5b5061077f600480360381019061077a91906142f4565b6115f2565b005b34801561078d57600080fd5b506107a860048036038101906107a39190613e7a565b611617565b6040516107b59190614230565b60405180910390f35b3480156107ca57600080fd5b506107d3611688565b6040516107e09190613d77565b60405180910390f35b3480156107f557600080fd5b50610810600480360381019061080b9190614585565b61169b565b005b34801561081e57600080fd5b5061083960048036038101906108349190613e7a565b6116b6565b6040516108469190613ee8565b60405180910390f35b34801561085b57600080fd5b5061087660048036038101906108719190614321565b61173c565b6040516108839190614230565b60405180910390f35b34801561089857600080fd5b506108a16117f3565b005b3480156108af57600080fd5b506108ca60048036038101906108c59190613e7a565b611807565b005b3480156108d857600080fd5b506108e1611819565b6040516108ee9190614230565b60405180910390f35b34801561090357600080fd5b5061090c61181f565b6040516109199190613ee8565b60405180910390f35b34801561092e57600080fd5b50610949600480360381019061094491906145ce565b611849565b005b34801561095757600080fd5b506109606119c9565b60405161096d9190613e22565b60405180910390f35b610990600480360381019061098b9190613e7a565b611a5b565b005b34801561099e57600080fd5b506109b960048036038101906109b4919061460e565b611cce565b005b3480156109c757600080fd5b506109d0611ce7565b6040516109dd9190614230565b60405180910390f35b3480156109f257600080fd5b506109fb611d2a565b604051610a089190613d77565b60405180910390f35b610a2b6004803603810190610a26919061464e565b611d3d565b005b348015610a3957600080fd5b50610a42611ecd565b604051610a4f9190613e22565b60405180910390f35b348015610a6457600080fd5b50610a7f6004803603810190610a7a9190613e7a565b611f5b565b604051610a8c9190613e22565b60405180910390f35b348015610aa157600080fd5b50610aaa6120b3565b604051610ab79190614230565b60405180910390f35b348015610acc57600080fd5b50610ae76004803603810190610ae29190614585565b6120b9565b005b348015610af557600080fd5b50610b106004803603810190610b0b91906146d1565b6120d4565b604051610b1d9190613d77565b60405180910390f35b348015610b3257600080fd5b50610b4d6004803603810190610b489190614585565b612139565b005b348015610b5b57600080fd5b50610b766004803603810190610b719190614321565b612154565b005b60007f780e9d63000000000000000000000000000000000000000000000000000000007bffffffffffffffffffffffffffffffffffffffffffffffffffffffff1916827bffffffffffffffffffffffffffffffffffffffffffffffffffffffff19161480610beb5750610bea82612287565b5b9050919050565b606060008054610c0190614740565b80601f0160208091040260200160405190810160405280929190818152602001828054610c2d90614740565b8015610c7a5780601f10610c4f57610100808354040283529160200191610c7a565b820191906000526020600020905b815481529060010190602001808311610c5d57829003601f168201915b5050505050905090565b6000610c8f82612369565b6004600083815260200190815260200160002060009054906101000a900473ffffffffffffffffffffffffffffffffffffffff169050919050565b60178054610cd790614740565b80601f0160208091040260200160405190810160405280929190818152602001828054610d0390614740565b8015610d505780601f10610d2557610100808354040283529160200191610d50565b820191906000526020600020905b815481529060010190602001808311610d3357829003601f168201915b505050505081565b81610d62816123b4565b610d6c83836124b1565b505050565b606060006040518060600160405280600e60008a73ffffffffffffffffffffffffffffffffffffffff1673ffffffffffffffffffffffffffffffffffffffff1681526020019081526020016000205481526020018873ffffffffffffffffffffffffffffffffffffffff168152602001878152509050610df487828787876125c8565b610e33576040517f08c379a0000000000000000000000000000000000000000000000000000000008152600401610e2a906147e3565b60405180910390fd5b6001600e60008973ffffffffffffffffffffffffffffffffffffffff1673ffffffffffffffffffffffffffffffffffffffff16815260200190815260200160002054610e7f9190614832565b600e60008973ffffffffffffffffffffffffffffffffffffffff1673ffffffffffffffffffffffffffffffffffffffff168152602001908152602001600020819055507f5845892132946850460bff5a0083f71031bc5bf9aadcd40f1de79423eac9b10b873388604051610ef593929190614866565b60405180910390a16000803073ffffffffffffffffffffffffffffffffffffffff16888a604051602001610f2a929190614928565b604051602081830303815290604052604051610f469190614950565b6000604051808303816000865af19150503d8060008114610f83576040519150601f19603f3d011682016040523d82523d6000602084013e610f88565b606091505b509150915081610fcd576040517f08c379a0000000000000000000000000000000000000000000000000000000008152600401610fc4906149b3565b60405180910390fd5b80935050505095945050505050565b6040518060400160405280600181526020017f310000000000000000000000000000000000000000000000000000000000000081525081565b60115481565b601a5481565b6000600880549050905090565b60145481565b6000600d54905090565b601b6020528060005260406000206000915054906101000a900473ffffffffffffffffffffffffffffffffffffffff1681565b60135481565b823373ffffffffffffffffffffffffffffffffffffffff168173ffffffffffffffffffffffffffffffffffffffff16146110b5576110b4336123b4565b5b6110c66110c06126d0565b836126df565b611105576040517f08c379a00000000000000000000000000000000000000000000000000000000081526004016110fc90614a45565b60405180910390fd5b60003411156111f45760006064601954346111209190614a65565b61112a9190614ad6565b905061113581612774565b60008573ffffffffffffffffffffffffffffffffffffffff16823461115a9190614b07565b60405161116690614b61565b60006040518083038185875af1925050503d80600081146111a3576040519150601f19603f3d011682016040523d82523d6000602084013e6111a8565b606091505b50509050806111b657600080fd5b7f3f3483d0995db4c081e0101ef6753bef457833c20605cd871de61dcb48085a9a8686346040516111e993929190614b76565b60405180910390a150505b6111ff848484612810565b50505050565b61120d612b09565b80601660006101000a81548160ff02191690831515021790555050565b6000600e60008373ffffffffffffffffffffffffffffffffffffffff1673ffffffffffffffffffffffffffffffffffffffff168152602001908152602001600020549050919050565b600061127e8361173c565b82106112bf576040517f08c379a00000000000000000000000000000000000000000000000000000000081526004016112b690614c1f565b60405180910390fd5b600660008473ffffffffffffffffffffffffffffffffffffffff1673ffffffffffffffffffffffffffffffffffffffff168152602001908152602001600020600083815260200190815260200160002054905092915050565b60195481565b6000804690508091505090565b611333612b09565b60003373ffffffffffffffffffffffffffffffffffffffff164760405161135990614b61565b60006040518083038185875af1925050503d8060008114611396576040519150601f19603f3d011682016040523d82523d6000602084013e61139b565b606091505b50509050806113a957600080fd5b50565b6daaeb6d7670e522a718067333cd4e81565b823373ffffffffffffffffffffffffffffffffffffffff168173ffffffffffffffffffffffffffffffffffffffff16146113fc576113fb336123b4565b5b60003411156114eb5760006064601954346114179190614a65565b6114219190614ad6565b905061142c81612774565b60008573ffffffffffffffffffffffffffffffffffffffff1682346114519190614b07565b60405161145d90614b61565b60006040518083038185875af1925050503d806000811461149a576040519150601f19603f3d011682016040523d82523d6000602084013e61149f565b606091505b50509050806114ad57600080fd5b7f3f3483d0995db4c081e0101ef6753bef457833c20605cd871de61dcb48085a9a8686346040516114e093929190614b76565b60405180910390a150505b61150684848460405180602001604052806000815250611d3d565b50505050565b606060006115198361173c565b905060008167ffffffffffffffff81111561153757611536613f79565b5b6040519080825280602002602001820160405280156115655781602001602082028036833780820191505090505b50905060005b828110156115af5761157d8582611273565b8282815181106115905761158f614c3f565b5b60200260200101818152505080806115a790614c6e565b91505061156b565b508092505050919050565b601860009054906101000a900473ffffffffffffffffffffffffffffffffffffffff1681565b6115e8612b09565b8060118190555050565b6115fa612b09565b80601660016101000a81548160ff02191690831515021790555050565b6000611621611021565b8210611662576040517f08c379a000000000000000000000000000000000000000000000000000000000815260040161165990614d28565b60405180910390fd5b6008828154811061167657611675614c3f565b5b90600052602060002001549050919050565b601660019054906101000a900460ff1681565b6116a3612b09565b80600f90816116b29190614eea565b5050565b6000806116c283612b87565b9050600073ffffffffffffffffffffffffffffffffffffffff168173ffffffffffffffffffffffffffffffffffffffff1603611733576040517f08c379a000000000000000000000000000000000000000000000000000000000815260040161172a90615008565b60405180910390fd5b80915050919050565b60008073ffffffffffffffffffffffffffffffffffffffff168273ffffffffffffffffffffffffffffffffffffffff16036117ac576040517f08c379a00000000000000000000000000000000000000000000000000000000081526004016117a39061509a565b60405180910390fd5b600360008373ffffffffffffffffffffffffffffffffffffffff1673ffffffffffffffffffffffffffffffffffffffff168152602001908152602001600020549050919050565b6117fb612b09565b6118056000612bc4565b565b61180f612b09565b8060138190555050565b60155481565b6000600a60009054906101000a900473ffffffffffffffffffffffffffffffffffffffff16905090565b611851612b09565b60008211801561186357506013548211155b6118a2576040517f08c379a00000000000000000000000000000000000000000000000000000000081526004016118999061512c565b60405180910390fd5b60006118ac611021565b9050601660009054906101000a900460ff16156118c857600080fd5b60125483826118d79190614832565b1115611918576040517f08c379a000000000000000000000000000000000000000000000000000000000815260040161190f906151e4565b60405180910390fd5b6000600190505b8381116119c3576001601a546119359190614832565b601a8190555082601b60006001601a5461194f9190614b07565b815260200190815260200160002060006101000a81548173ffffffffffffffffffffffffffffffffffffffff021916908373ffffffffffffffffffffffffffffffffffffffff1602179055506119b08382846119ab9190614832565b612c8a565b80806119bb90614c6e565b91505061191f565b50505050565b6060600180546119d890614740565b80601f0160208091040260200160405190810160405280929190818152602001828054611a0490614740565b8015611a515780601f10611a2657610100808354040283529160200191611a51565b820191906000526020600020905b815481529060010190602001808311611a3457829003601f168201915b5050505050905090565b6002600b5403611aa0576040517f08c379a0000000000000000000000000000000000000000000000000000000008152600401611a9790615250565b60405180910390fd5b6002600b81905550601554601454611ab89190614832565b421015611afa576040517f08c379a0000000000000000000000000000000000000000000000000000000008152600401611af1906152bc565b60405180910390fd5b601354611b063361173c565b1115611b47576040517f08c379a0000000000000000000000000000000000000000000000000000000008152600401611b3e90615328565b60405180910390fd5b600081118015611b5957506013548111155b611b98576040517f08c379a0000000000000000000000000000000000000000000000000000000008152600401611b8f9061512c565b60405180910390fd5b6000611ba2611021565b9050601660009054906101000a900460ff1615611bbe57600080fd5b6012548282611bcd9190614832565b1115611c0e576040517f08c379a0000000000000000000000000000000000000000000000000000000008152600401611c05906151e4565b60405180910390fd5b611c1661181f565b73ffffffffffffffffffffffffffffffffffffffff163373ffffffffffffffffffffffffffffffffffffffff1614611c635781601154611c569190614a65565b341015611c6257600080fd5b5b6000606460195434611c759190614a65565b611c7f9190614ad6565b9050611c8a81612774565b6000600190505b838111611cc057611cad338285611ca89190614832565b612c8a565b8080611cb890614c6e565b915050611c91565b5050506001600b8190555050565b81611cd8816123b4565b611ce28383612ca8565b505050565b6000601554601454611cf99190614832565b421015611d225742601554601454611d119190614832565b611d1b9190614b07565b9050611d27565b600090505b90565b601660009054906101000a900460ff1681565b833373ffffffffffffffffffffffffffffffffffffffff168173ffffffffffffffffffffffffffffffffffffffff1614611d7b57611d7a336123b4565b5b611d8c611d866126d0565b846126df565b611dcb576040517f08c379a0000000000000000000000000000000000000000000000000000000008152600401611dc290614a45565b60405180910390fd5b6000341115611eba576000606460195434611de69190614a65565b611df09190614ad6565b9050611dfb81612774565b60008673ffffffffffffffffffffffffffffffffffffffff168234611e209190614b07565b604051611e2c90614b61565b60006040518083038185875af1925050503d8060008114611e69576040519150601f19603f3d011682016040523d82523d6000602084013e611e6e565b606091505b5050905080611e7c57600080fd5b7f3f3483d0995db4c081e0101ef6753bef457833c20605cd871de61dcb48085a9a878734604051611eaf93929190614b76565b60405180910390a150505b611ec685858585612cbe565b5050505050565b60108054611eda90614740565b80601f0160208091040260200160405190810160405280929190818152602001828054611f0690614740565b8015611f535780601f10611f2857610100808354040283529160200191611f53565b820191906000526020600020905b815481529060010190602001808311611f3657829003601f168201915b505050505081565b6060611f6682612d1a565b611fa5576040517f08c379a0000000000000000000000000000000000000000000000000000000008152600401611f9c906153ba565b60405180910390fd5b60001515601660019054906101000a900460ff161515036120525760178054611fcd90614740565b80601f0160208091040260200160405190810160405280929190818152602001828054611ff990614740565b80156120465780601f1061201b57610100808354040283529160200191612046565b820191906000526020600020905b81548152906001019060200180831161202957829003601f168201915b505050505090506120ae565b600061205c612d5b565b9050600081511161207c57604051806020016040528060008152506120aa565b8061208684612ded565b601060405160200161209a93929190615499565b6040516020818303038152906040525b9150505b919050565b60125481565b6120c1612b09565b80601090816120d09190614eea565b5050565b60007358807bad0b376efc12f5ad86aac70e78ed67deae73ffffffffffffffffffffffffffffffffffffffff168273ffffffffffffffffffffffffffffffffffffffff16036121265760019050612133565b6121308383612f4d565b90505b92915050565b612141612b09565b80601790816121509190614eea565b5050565b61215c612b09565b600073ffffffffffffffffffffffffffffffffffffffff168173ffffffffffffffffffffffffffffffffffffffff16036121cb576040517f08c379a00000000000000000000000000000000000000000000000000000000081526004016121c29061553c565b60405180910390fd5b6121d481612bc4565b50565b60003073ffffffffffffffffffffffffffffffffffffffff163373ffffffffffffffffffffffffffffffffffffffff160361228057600080368080601f016020809104026020016040519081016040528093929190818152602001838380828437600081840152601f19601f820116905080830192505050505050509050600080369050905073ffffffffffffffffffffffffffffffffffffffff818301511692505050612284565b3390505b90565b60007f80ac58cd000000000000000000000000000000000000000000000000000000007bffffffffffffffffffffffffffffffffffffffffffffffffffffffff1916827bffffffffffffffffffffffffffffffffffffffffffffffffffffffff1916148061235257507f5b5e139f000000000000000000000000000000000000000000000000000000007bffffffffffffffffffffffffffffffffffffffffffffffffffffffff1916827bffffffffffffffffffffffffffffffffffffffffffffffffffffffff1916145b80612362575061236182612fe1565b5b9050919050565b61237281612d1a565b6123b1576040517f08c379a00000000000000000000000000000000000000000000000000000000081526004016123a890615008565b60405180910390fd5b50565b60006daaeb6d7670e522a718067333cd4e73ffffffffffffffffffffffffffffffffffffffff163b11156124ae576daaeb6d7670e522a718067333cd4e73ffffffffffffffffffffffffffffffffffffffff1663c617113430836040518363ffffffff1660e01b815260040161242b92919061555c565b602060405180830381865afa158015612448573d6000803e3d6000fd5b505050506040513d601f19601f8201168201806040525081019061246c919061559a565b6124ad57806040517fede71dcc0000000000000000000000000000000000000000000000000000000081526004016124a49190613ee8565b60405180910390fd5b5b50565b60006124bc826116b6565b90508073ffffffffffffffffffffffffffffffffffffffff168373ffffffffffffffffffffffffffffffffffffffff160361252c576040517f08c379a000000000000000000000000000000000000000000000000000000000815260040161252390615639565b60405180910390fd5b8073ffffffffffffffffffffffffffffffffffffffff1661254b6126d0565b73ffffffffffffffffffffffffffffffffffffffff16148061257a5750612579816125746126d0565b6120d4565b5b6125b9576040517f08c379a00000000000000000000000000000000000000000000000000000000081526004016125b0906156cb565b60405180910390fd5b6125c3838361304b565b505050565b60008073ffffffffffffffffffffffffffffffffffffffff168673ffffffffffffffffffffffffffffffffffffffff1603612638576040517f08c379a000000000000000000000000000000000000000000000000000000000815260040161262f9061575d565b60405180910390fd5b600161264b61264687613104565b61316c565b8386866040516000815260200160405260405161266b949392919061578c565b6020604051602081039080840390855afa15801561268d573d6000803e3d6000fd5b5050506020604051035173ffffffffffffffffffffffffffffffffffffffff168673ffffffffffffffffffffffffffffffffffffffff1614905095945050505050565b60006126da6121d7565b905090565b6000806126eb836116b6565b90508073ffffffffffffffffffffffffffffffffffffffff168473ffffffffffffffffffffffffffffffffffffffff16148061272d575061272c81856120d4565b5b8061276b57508373ffffffffffffffffffffffffffffffffffffffff1661275384610c84565b73ffffffffffffffffffffffffffffffffffffffff16145b91505092915050565b6000601860009054906101000a900473ffffffffffffffffffffffffffffffffffffffff1673ffffffffffffffffffffffffffffffffffffffff16826040516127bc90614b61565b60006040518083038185875af1925050503d80600081146127f9576040519150601f19603f3d011682016040523d82523d6000602084013e6127fe565b606091505b505090508061280c57600080fd5b5050565b8273ffffffffffffffffffffffffffffffffffffffff16612830826116b6565b73ffffffffffffffffffffffffffffffffffffffff1614612886576040517f08c379a000000000000000000000000000000000000000000000000000000000815260040161287d90615843565b60405180910390fd5b600073ffffffffffffffffffffffffffffffffffffffff168273ffffffffffffffffffffffffffffffffffffffff16036128f5576040517f08c379a00000000000000000000000000000000000000000000000000000000081526004016128ec906158d5565b60405180910390fd5b61290283838360016131a5565b8273ffffffffffffffffffffffffffffffffffffffff16612922826116b6565b73ffffffffffffffffffffffffffffffffffffffff1614612978576040517f08c379a000000000000000000000000000000000000000000000000000000000815260040161296f90615843565b60405180910390fd5b6004600082815260200190815260200160002060006101000a81549073ffffffffffffffffffffffffffffffffffffffff02191690556001600360008573ffffffffffffffffffffffffffffffffffffffff1673ffffffffffffffffffffffffffffffffffffffff168152602001908152602001600020600082825403925050819055506001600360008473ffffffffffffffffffffffffffffffffffffffff1673ffffffffffffffffffffffffffffffffffffffff16815260200190815260200160002060008282540192505081905550816002600083815260200190815260200160002060006101000a81548173ffffffffffffffffffffffffffffffffffffffff021916908373ffffffffffffffffffffffffffffffffffffffff160217905550808273ffffffffffffffffffffffffffffffffffffffff168473ffffffffffffffffffffffffffffffffffffffff167fddf252ad1be2c89b69c2b068fc378daa952ba7f163c4a11628f55a4df523b3ef60405160405180910390a4612b048383836001613303565b505050565b612b116126d0565b73ffffffffffffffffffffffffffffffffffffffff16612b2f61181f565b73ffffffffffffffffffffffffffffffffffffffff1614612b85576040517f08c379a0000000000000000000000000000000000000000000000000000000008152600401612b7c90615941565b60405180910390fd5b565b60006002600083815260200190815260200160002060009054906101000a900473ffffffffffffffffffffffffffffffffffffffff169050919050565b6000600a60009054906101000a900473ffffffffffffffffffffffffffffffffffffffff16905081600a60006101000a81548173ffffffffffffffffffffffffffffffffffffffff021916908373ffffffffffffffffffffffffffffffffffffffff1602179055508173ffffffffffffffffffffffffffffffffffffffff168173ffffffffffffffffffffffffffffffffffffffff167f8be0079c531659141344cd1fd0a4f28419497f9722a3daafe3b4186f6b6457e060405160405180910390a35050565b612ca4828260405180602001604052806000815250613309565b5050565b612cba612cb36126d0565b8383613364565b5050565b612cc9848484612810565b612cd5848484846134d0565b612d14576040517f08c379a0000000000000000000000000000000000000000000000000000000008152600401612d0b906159d3565b60405180910390fd5b50505050565b60008073ffffffffffffffffffffffffffffffffffffffff16612d3c83612b87565b73ffffffffffffffffffffffffffffffffffffffff1614159050919050565b6060600f8054612d6a90614740565b80601f0160208091040260200160405190810160405280929190818152602001828054612d9690614740565b8015612de35780601f10612db857610100808354040283529160200191612de3565b820191906000526020600020905b815481529060010190602001808311612dc657829003601f168201915b5050505050905090565b606060008203612e34576040518060400160405280600181526020017f30000000000000000000000000000000000000000000000000000000000000008152509050612f48565b600082905060005b60008214612e66578080612e4f90614c6e565b915050600a82612e5f9190614ad6565b9150612e3c565b60008167ffffffffffffffff811115612e8257612e81613f79565b5b6040519080825280601f01601f191660200182016040528015612eb45781602001600182028036833780820191505090505b5090505b60008514612f4157600182612ecd9190614b07565b9150600a85612edc91906159f3565b6030612ee89190614832565b60f81b818381518110612efe57612efd614c3f565b5b60200101907effffffffffffffffffffffffffffffffffffffffffffffffffffffffffffff1916908160001a905350600a85612f3a9190614ad6565b9450612eb8565b8093505050505b919050565b6000600560008473ffffffffffffffffffffffffffffffffffffffff1673ffffffffffffffffffffffffffffffffffffffff16815260200190815260200160002060008373ffffffffffffffffffffffffffffffffffffffff1673ffffffffffffffffffffffffffffffffffffffff16815260200190815260200160002060009054906101000a900460ff16905092915050565b60007f01ffc9a7000000000000000000000000000000000000000000000000000000007bffffffffffffffffffffffffffffffffffffffffffffffffffffffff1916827bffffffffffffffffffffffffffffffffffffffffffffffffffffffff1916149050919050565b816004600083815260200190815260200160002060006101000a81548173ffffffffffffffffffffffffffffffffffffffff021916908373ffffffffffffffffffffffffffffffffffffffff160217905550808273ffffffffffffffffffffffffffffffffffffffff166130be836116b6565b73ffffffffffffffffffffffffffffffffffffffff167f8c5be1e5ebec7d5bd14f71427d1e84f3dd0314c0f7b2291e5b200ac8c7c3b92560405160405180910390a45050565b6000604051806080016040528060438152602001615da160439139805190602001208260000151836020015184604001518051906020012060405160200161314f9493929190615a24565b604051602081830303815290604052805190602001209050919050565b6000613176611034565b82604051602001613188929190615ad6565b604051602081830303815290604052805190602001209050919050565b6131b184848484613657565b60018111156131f5576040517f08c379a00000000000000000000000000000000000000000000000000000000081526004016131ec90615b7f565b60405180910390fd5b6000829050600073ffffffffffffffffffffffffffffffffffffffff168573ffffffffffffffffffffffffffffffffffffffff160361323c576132378161377d565b61327b565b8373ffffffffffffffffffffffffffffffffffffffff168573ffffffffffffffffffffffffffffffffffffffff161461327a5761327985826137c6565b5b5b600073ffffffffffffffffffffffffffffffffffffffff168473ffffffffffffffffffffffffffffffffffffffff16036132bd576132b881613933565b6132fc565b8473ffffffffffffffffffffffffffffffffffffffff168473ffffffffffffffffffffffffffffffffffffffff16146132fb576132fa8482613a04565b5b5b5050505050565b50505050565b6133138383613a83565b61332060008484846134d0565b61335f576040517f08c379a0000000000000000000000000000000000000000000000000000000008152600401613356906159d3565b60405180910390fd5b505050565b8173ffffffffffffffffffffffffffffffffffffffff168373ffffffffffffffffffffffffffffffffffffffff16036133d2576040517f08c379a00000000000000000000000000000000000000000000000000000000081526004016133c990615beb565b60405180910390fd5b80600560008573ffffffffffffffffffffffffffffffffffffffff1673ffffffffffffffffffffffffffffffffffffffff16815260200190815260200160002060008473ffffffffffffffffffffffffffffffffffffffff1673ffffffffffffffffffffffffffffffffffffffff16815260200190815260200160002060006101000a81548160ff0219169083151502179055508173ffffffffffffffffffffffffffffffffffffffff168373ffffffffffffffffffffffffffffffffffffffff167f17307eab39ab6107e8899845ad3d59bd9653f200f220920489ca2b5937696c31836040516134c39190613d77565b60405180910390a3505050565b60006134f18473ffffffffffffffffffffffffffffffffffffffff16613ca0565b1561364a578373ffffffffffffffffffffffffffffffffffffffff1663150b7a0261351a6126d0565b8786866040518563ffffffff1660e01b815260040161353c9493929190615c0b565b6020604051808303816000875af192505050801561357857506040513d601f19601f820116820180604052508101906135759190615c6c565b60015b6135fa573d80600081146135a8576040519150601f19603f3d011682016040523d82523d6000602084013e6135ad565b606091505b5060008151036135f2576040517f08c379a00000000000000000000000000000000000000000000000000000000081526004016135e9906159d3565b60405180910390fd5b805181602001fd5b63150b7a0260e01b7bffffffffffffffffffffffffffffffffffffffffffffffffffffffff1916817bffffffffffffffffffffffffffffffffffffffffffffffffffffffff19161491505061364f565b600190505b949350505050565b600181111561377757600073ffffffffffffffffffffffffffffffffffffffff168473ffffffffffffffffffffffffffffffffffffffff16146136eb5780600360008673ffffffffffffffffffffffffffffffffffffffff1673ffffffffffffffffffffffffffffffffffffffff16815260200190815260200160002060008282546136e39190614b07565b925050819055505b600073ffffffffffffffffffffffffffffffffffffffff168373ffffffffffffffffffffffffffffffffffffffff16146137765780600360008573ffffffffffffffffffffffffffffffffffffffff1673ffffffffffffffffffffffffffffffffffffffff168152602001908152602001600020600082825461376e9190614832565b925050819055505b5b50505050565b6008805490506009600083815260200190815260200160002081905550600881908060018154018082558091505060019003906000526020600020016000909190919091505550565b600060016137d38461173c565b6137dd9190614b07565b90506000600760008481526020019081526020016000205490508181146138c2576000600660008673ffffffffffffffffffffffffffffffffffffffff1673ffffffffffffffffffffffffffffffffffffffff168152602001908152602001600020600084815260200190815260200160002054905080600660008773ffffffffffffffffffffffffffffffffffffffff1673ffffffffffffffffffffffffffffffffffffffff168152602001908152602001600020600084815260200190815260200160002081905550816007600083815260200190815260200160002081905550505b6007600084815260200190815260200160002060009055600660008573ffffffffffffffffffffffffffffffffffffffff1673ffffffffffffffffffffffffffffffffffffffff16815260200190815260200160002060008381526020019081526020016000206000905550505050565b600060016008805490506139479190614b07565b905060006009600084815260200190815260200160002054905060006008838154811061397757613976614c3f565b5b90600052602060002001549050806008838154811061399957613998614c3f565b5b9060005260206000200181905550816009600083815260200190815260200160002081905550600960008581526020019081526020016000206000905560088054806139e8576139e7615c99565b5b6001900381819060005260206000200160009055905550505050565b6000613a0f8361173c565b905081600660008573ffffffffffffffffffffffffffffffffffffffff1673ffffffffffffffffffffffffffffffffffffffff168152602001908152602001600020600083815260200190815260200160002081905550806007600084815260200190815260200160002081905550505050565b600073ffffffffffffffffffffffffffffffffffffffff168273ffffffffffffffffffffffffffffffffffffffff1603613af2576040517f08c379a0000000000000000000000000000000000000000000000000000000008152600401613ae990615d14565b60405180910390fd5b613afb81612d1a565b15613b3b576040517f08c379a0000000000000000000000000000000000000000000000000000000008152600401613b3290615d80565b60405180910390fd5b613b496000838360016131a5565b613b5281612d1a565b15613b92576040517f08c379a0000000000000000000000000000000000000000000000000000000008152600401613b8990615d80565b60405180910390fd5b6001600360008473ffffffffffffffffffffffffffffffffffffffff1673ffffffffffffffffffffffffffffffffffffffff16815260200190815260200160002060008282540192505081905550816002600083815260200190815260200160002060006101000a81548173ffffffffffffffffffffffffffffffffffffffff021916908373ffffffffffffffffffffffffffffffffffffffff160217905550808273ffffffffffffffffffffffffffffffffffffffff16600073ffffffffffffffffffffffffffffffffffffffff167fddf252ad1be2c89b69c2b068fc378daa952ba7f163c4a11628f55a4df523b3ef60405160405180910390a4613c9c600083836001613303565b5050565b6000808273ffffffffffffffffffffffffffffffffffffffff163b119050919050565b6000604051905090565b600080fd5b600080fd5b60007fffffffff0000000000000000000000000000000000000000000000000000000082169050919050565b613d0c81613cd7565b8114613d1757600080fd5b50565b600081359050613d2981613d03565b92915050565b600060208284031215613d4557613d44613ccd565b5b6000613d5384828501613d1a565b91505092915050565b60008115159050919050565b613d7181613d5c565b82525050565b6000602082019050613d8c6000830184613d68565b92915050565b600081519050919050565b600082825260208201905092915050565b60005b83811015613dcc578082015181840152602081019050613db1565b60008484015250505050565b6000601f19601f8301169050919050565b6000613df482613d92565b613dfe8185613d9d565b9350613e0e818560208601613dae565b613e1781613dd8565b840191505092915050565b60006020820190508181036000830152613e3c8184613de9565b905092915050565b6000819050919050565b613e5781613e44565b8114613e6257600080fd5b50565b600081359050613e7481613e4e565b92915050565b600060208284031215613e9057613e8f613ccd565b5b6000613e9e84828501613e65565b91505092915050565b600073ffffffffffffffffffffffffffffffffffffffff82169050919050565b6000613ed282613ea7565b9050919050565b613ee281613ec7565b82525050565b6000602082019050613efd6000830184613ed9565b92915050565b613f0c81613ec7565b8114613f1757600080fd5b50565b600081359050613f2981613f03565b92915050565b60008060408385031215613f4657613f45613ccd565b5b6000613f5485828601613f1a565b9250506020613f6585828601613e65565b9150509250929050565b600080fd5b600080fd5b7f4e487b7100000000000000000000000000000000000000000000000000000000600052604160045260246000fd5b613fb182613dd8565b810181811067ffffffffffffffff82111715613fd057613fcf613f79565b5b80604052505050565b6000613fe3613cc3565b9050613fef8282613fa8565b919050565b600067ffffffffffffffff82111561400f5761400e613f79565b5b61401882613dd8565b9050602081019050919050565b82818337600083830152505050565b600061404761404284613ff4565b613fd9565b90508281526020810184848401111561406357614062613f74565b5b61406e848285614025565b509392505050565b600082601f83011261408b5761408a613f6f565b5b813561409b848260208601614034565b91505092915050565b6000819050919050565b6140b7816140a4565b81146140c257600080fd5b50565b6000813590506140d4816140ae565b92915050565b600060ff82169050919050565b6140f0816140da565b81146140fb57600080fd5b50565b60008135905061410d816140e7565b92915050565b600080600080600060a0868803121561412f5761412e613ccd565b5b600061413d88828901613f1a565b955050602086013567ffffffffffffffff81111561415e5761415d613cd2565b5b61416a88828901614076565b945050604061417b888289016140c5565b935050606061418c888289016140c5565b925050608061419d888289016140fe565b9150509295509295909350565b600081519050919050565b600082825260208201905092915050565b60006141d1826141aa565b6141db81856141b5565b93506141eb818560208601613dae565b6141f481613dd8565b840191505092915050565b6000602082019050818103600083015261421981846141c6565b905092915050565b61422a81613e44565b82525050565b60006020820190506142456000830184614221565b92915050565b614254816140a4565b82525050565b600060208201905061426f600083018461424b565b92915050565b60008060006060848603121561428e5761428d613ccd565b5b600061429c86828701613f1a565b93505060206142ad86828701613f1a565b92505060406142be86828701613e65565b9150509250925092565b6142d181613d5c565b81146142dc57600080fd5b50565b6000813590506142ee816142c8565b92915050565b60006020828403121561430a57614309613ccd565b5b6000614318848285016142df565b91505092915050565b60006020828403121561433757614336613ccd565b5b600061434584828501613f1a565b91505092915050565b6000819050919050565b600061437361436e61436984613ea7565b61434e565b613ea7565b9050919050565b600061438582614358565b9050919050565b60006143978261437a565b9050919050565b6143a78161438c565b82525050565b60006020820190506143c2600083018461439e565b92915050565b600081519050919050565b600082825260208201905092915050565b6000819050602082019050919050565b6143fd81613e44565b82525050565b600061440f83836143f4565b60208301905092915050565b6000602082019050919050565b6000614433826143c8565b61443d81856143d3565b9350614448836143e4565b8060005b838110156144795781516144608882614403565b975061446b8361441b565b92505060018101905061444c565b5085935050505092915050565b600060208201905081810360008301526144a08184614428565b905092915050565b60006144b382613ea7565b9050919050565b6144c3816144a8565b82525050565b60006020820190506144de60008301846144ba565b92915050565b600067ffffffffffffffff8211156144ff576144fe613f79565b5b61450882613dd8565b9050602081019050919050565b6000614528614523846144e4565b613fd9565b90508281526020810184848401111561454457614543613f74565b5b61454f848285614025565b509392505050565b600082601f83011261456c5761456b613f6f565b5b813561457c848260208601614515565b91505092915050565b60006020828403121561459b5761459a613ccd565b5b600082013567ffffffffffffffff8111156145b9576145b8613cd2565b5b6145c584828501614557565b91505092915050565b600080604083850312156145e5576145e4613ccd565b5b60006145f385828601613e65565b925050602061460485828601613f1a565b9150509250929050565b6000806040838503121561462557614624613ccd565b5b600061463385828601613f1a565b9250506020614644858286016142df565b9150509250929050565b6000806000806080858703121561466857614667613ccd565b5b600061467687828801613f1a565b945050602061468787828801613f1a565b935050604061469887828801613e65565b925050606085013567ffffffffffffffff8111156146b9576146b8613cd2565b5b6146c587828801614076565b91505092959194509250565b600080604083850312156146e8576146e7613ccd565b5b60006146f685828601613f1a565b925050602061470785828601613f1a565b9150509250929050565b7f4e487b7100000000000000000000000000000000000000000000000000000000600052602260045260246000fd5b6000600282049050600182168061475857607f821691505b60208210810361476b5761476a614711565b5b50919050565b7f5369676e657220616e64207369676e617475726520646f206e6f74206d61746360008201527f6800000000000000000000000000000000000000000000000000000000000000602082015250565b60006147cd602183613d9d565b91506147d882614771565b604082019050919050565b600060208201905081810360008301526147fc816147c0565b9050919050565b7f4e487b7100000000000000000000000000000000000000000000000000000000600052601160045260246000fd5b600061483d82613e44565b915061484883613e44565b92508282019050808211156148605761485f614803565b5b92915050565b600060608201905061487b6000830186613ed9565b61488860208301856144ba565b818103604083015261489a81846141c6565b9050949350505050565b600081905092915050565b60006148ba826141aa565b6148c481856148a4565b93506148d4818560208601613dae565b80840191505092915050565b60008160601b9050919050565b60006148f8826148e0565b9050919050565b600061490a826148ed565b9050919050565b61492261491d82613ec7565b6148ff565b82525050565b600061493482856148af565b91506149408284614911565b6014820191508190509392505050565b600061495c82846148af565b915081905092915050565b7f46756e6374696f6e2063616c6c206e6f74207375636365737366756c00000000600082015250565b600061499d601c83613d9d565b91506149a882614967565b602082019050919050565b600060208201905081810360008301526149cc81614990565b9050919050565b7f4552433732313a207472616e736665722063616c6c6572206973206e6f74206f60008201527f776e6572206e6f7220617070726f766564000000000000000000000000000000602082015250565b6000614a2f603183613d9d565b9150614a3a826149d3565b604082019050919050565b60006020820190508181036000830152614a5e81614a22565b9050919050565b6000614a7082613e44565b9150614a7b83613e44565b9250828202614a8981613e44565b91508282048414831517614aa057614a9f614803565b5b5092915050565b7f4e487b7100000000000000000000000000000000000000000000000000000000600052601260045260246000fd5b6000614ae182613e44565b9150614aec83613e44565b925082614afc57614afb614aa7565b5b828204905092915050565b6000614b1282613e44565b9150614b1d83613e44565b9250828203905081811115614b3557614b34614803565b5b92915050565b50565b6000614b4b6000836148a4565b9150614b5682614b3b565b600082019050919050565b6000614b6c82614b3e565b9150819050919050565b6000606082019050614b8b6000830186613ed9565b614b986020830185613ed9565b614ba56040830184614221565b949350505050565b7f455243373231456e756d657261626c653a206f776e657220696e646578206f7560008201527f74206f6620626f756e6473000000000000000000000000000000000000000000602082015250565b6000614c09602b83613d9d565b9150614c1482614bad565b604082019050919050565b60006020820190508181036000830152614c3881614bfc565b9050919050565b7f4e487b7100000000000000000000000000000000000000000000000000000000600052603260045260246000fd5b6000614c7982613e44565b91507fffffffffffffffffffffffffffffffffffffffffffffffffffffffffffffffff8203614cab57614caa614803565b5b600182019050919050565b7f455243373231456e756d657261626c653a20676c6f62616c20696e646578206f60008201527f7574206f6620626f756e64730000000000000000000000000000000000000000602082015250565b6000614d12602c83613d9d565b9150614d1d82614cb6565b604082019050919050565b60006020820190508181036000830152614d4181614d05565b9050919050565b60008190508160005260206000209050919050565b60006020601f8301049050919050565b600082821b905092915050565b600060088302614daa7fffffffffffffffffffffffffffffffffffffffffffffffffffffffffffffffff82614d6d565b614db48683614d6d565b95508019841693508086168417925050509392505050565b6000614de7614de2614ddd84613e44565b61434e565b613e44565b9050919050565b6000819050919050565b614e0183614dcc565b614e15614e0d82614dee565b848454614d7a565b825550505050565b600090565b614e2a614e1d565b614e35818484614df8565b505050565b5b81811015614e5957614e4e600082614e22565b600181019050614e3b565b5050565b601f821115614e9e57614e6f81614d48565b614e7884614d5d565b81016020851015614e87578190505b614e9b614e9385614d5d565b830182614e3a565b50505b505050565b600082821c905092915050565b6000614ec160001984600802614ea3565b1980831691505092915050565b6000614eda8383614eb0565b9150826002028217905092915050565b614ef382613d92565b67ffffffffffffffff811115614f0c57614f0b613f79565b5b614f168254614740565b614f21828285614e5d565b600060209050601f831160018114614f545760008415614f42578287015190505b614f4c8582614ece565b865550614fb4565b601f198416614f6286614d48565b60005b82811015614f8a57848901518255600182019150602085019450602081019050614f65565b86831015614fa75784890151614fa3601f891682614eb0565b8355505b6001600288020188555050505b505050505050565b7f4552433732313a20696e76616c696420746f6b656e2049440000000000000000600082015250565b6000614ff2601883613d9d565b9150614ffd82614fbc565b602082019050919050565b6000602082019050818103600083015261502181614fe5565b9050919050565b7f4552433732313a2061646472657373207a65726f206973206e6f74206120766160008201527f6c6964206f776e65720000000000000000000000000000000000000000000000602082015250565b6000615084602983613d9d565b915061508f82615028565b604082019050919050565b600060208201905081810360008301526150b381615077565b9050919050565b7f4e6f7420612076616c6964206d696e7420616d6f756e742e205472792031206d60008201527f696e7420612074696d652e000000000000000000000000000000000000000000602082015250565b6000615116602b83613d9d565b9150615121826150ba565b604082019050919050565b6000602082019050818103600083015261514581615109565b9050919050565b7f546865206d696e7420616d6f756e7420796f7520656e7465726564206578636560008201527f65647320746f74616c20737570706c792e20456e746572206120736d616c6c6560208201527f7220616d6f756e742e0000000000000000000000000000000000000000000000604082015250565b60006151ce604983613d9d565b91506151d98261514c565b606082019050919050565b600060208201905081810360008301526151fd816151c1565b9050919050565b7f5265656e7472616e637947756172643a207265656e7472616e742063616c6c00600082015250565b600061523a601f83613d9d565b915061524582615204565b602082019050919050565b600060208201905081810360008301526152698161522d565b9050919050565b7f4d696e74696e67206e6f7420616c6c6f77656420796574000000000000000000600082015250565b60006152a6601783613d9d565b91506152b182615270565b602082019050919050565b600060208201905081810360008301526152d581615299565b9050919050565b7f4d617820313030206d696e7420706572206163636f756e740000000000000000600082015250565b6000615312601883613d9d565b915061531d826152dc565b602082019050919050565b6000602082019050818103600083015261534181615305565b9050919050565b7f4552433732314d657461646174613a2055524920717565727920666f72206e6f60008201527f6e6578697374656e7420746f6b656e0000000000000000000000000000000000602082015250565b60006153a4602f83613d9d565b91506153af82615348565b604082019050919050565b600060208201905081810360008301526153d381615397565b9050919050565b600081905092915050565b60006153f082613d92565b6153fa81856153da565b935061540a818560208601613dae565b80840191505092915050565b6000815461542381614740565b61542d81866153da565b94506001821660008114615448576001811461545d57615490565b60ff1983168652811515820286019350615490565b61546685614d48565b60005b8381101561548857815481890152600182019150602081019050615469565b838801955050505b50505092915050565b60006154a582866153e5565b91506154b182856153e5565b91506154bd8284615416565b9150819050949350505050565b7f4f776e61626c653a206e6577206f776e657220697320746865207a65726f206160008201527f6464726573730000000000000000000000000000000000000000000000000000602082015250565b6000615526602683613d9d565b9150615531826154ca565b604082019050919050565b6000602082019050818103600083015261555581615519565b9050919050565b60006040820190506155716000830185613ed9565b61557e6020830184613ed9565b9392505050565b600081519050615594816142c8565b92915050565b6000602082840312156155b0576155af613ccd565b5b60006155be84828501615585565b91505092915050565b7f4552433732313a20617070726f76616c20746f2063757272656e74206f776e6560008201527f7200000000000000000000000000000000000000000000000000000000000000602082015250565b6000615623602183613d9d565b915061562e826155c7565b604082019050919050565b6000602082019050818103600083015261565281615616565b9050919050565b7f4552433732313a20617070726f76652063616c6c6572206973206e6f7420746f60008201527f6b656e206f776e6572206f7220617070726f76656420666f7220616c6c000000602082015250565b60006156b5603d83613d9d565b91506156c082615659565b604082019050919050565b600060208201905081810360008301526156e4816156a8565b9050919050565b7f4e61746976654d6574615472616e73616374696f6e3a20494e56414c49445f5360008201527f49474e4552000000000000000000000000000000000000000000000000000000602082015250565b6000615747602583613d9d565b9150615752826156eb565b604082019050919050565b600060208201905081810360008301526157768161573a565b9050919050565b615786816140da565b82525050565b60006080820190506157a1600083018761424b565b6157ae602083018661577d565b6157bb604083018561424b565b6157c8606083018461424b565b95945050505050565b7f4552433732313a207472616e736665722066726f6d20696e636f72726563742060008201527f6f776e6572000000000000000000000000000000000000000000000000000000602082015250565b600061582d602583613d9d565b9150615838826157d1565b604082019050919050565b6000602082019050818103600083015261585c81615820565b9050919050565b7f4552433732313a207472616e7366657220746f20746865207a65726f2061646460008201527f7265737300000000000000000000000000000000000000000000000000000000602082015250565b60006158bf602483613d9d565b91506158ca82615863565b604082019050919050565b600060208201905081810360008301526158ee816158b2565b9050919050565b7f4f776e61626c653a2063616c6c6572206973206e6f7420746865206f776e6572600082015250565b600061592b602083613d9d565b9150615936826158f5565b602082019050919050565b6000602082019050818103600083015261595a8161591e565b9050919050565b7f4552433732313a207472616e7366657220746f206e6f6e20455243373231526560008201527f63656976657220696d706c656d656e7465720000000000000000000000000000602082015250565b60006159bd603283613d9d565b91506159c882615961565b604082019050919050565b600060208201905081810360008301526159ec816159b0565b9050919050565b60006159fe82613e44565b9150615a0983613e44565b925082615a1957615a18614aa7565b5b828206905092915050565b6000608082019050615a39600083018761424b565b615a466020830186614221565b615a536040830185613ed9565b615a60606083018461424b565b95945050505050565b7f1901000000000000000000000000000000000000000000000000000000000000600082015250565b6000615a9f6002836153da565b9150615aaa82615a69565b600282019050919050565b6000819050919050565b615ad0615acb826140a4565b615ab5565b82525050565b6000615ae182615a92565b9150615aed8285615abf565b602082019150615afd8284615abf565b6020820191508190509392505050565b7f455243373231456e756d657261626c653a20636f6e736563757469766520747260008201527f616e7366657273206e6f7420737570706f727465640000000000000000000000602082015250565b6000615b69603583613d9d565b9150615b7482615b0d565b604082019050919050565b60006020820190508181036000830152615b9881615b5c565b9050919050565b7f4552433732313a20617070726f766520746f2063616c6c657200000000000000600082015250565b6000615bd5601983613d9d565b9150615be082615b9f565b602082019050919050565b60006020820190508181036000830152615c0481615bc8565b9050919050565b6000608082019050615c206000830187613ed9565b615c2d6020830186613ed9565b615c3a6040830185614221565b8181036060830152615c4c81846141c6565b905095945050505050565b600081519050615c6681613d03565b92915050565b600060208284031215615c8257615c81613ccd565b5b6000615c9084828501615c57565b91505092915050565b7f4e487b7100000000000000000000000000000000000000000000000000000000600052603160045260246000fd5b7f4552433732313a206d696e7420746f20746865207a65726f2061646472657373600082015250565b6000615cfe602083613d9d565b9150615d0982615cc8565b602082019050919050565b60006020820190508181036000830152615d2d81615cf1565b9050919050565b7f4552433732313a20746f6b656e20616c7265616479206d696e74656400000000600082015250565b6000615d6a601c83613d9d565b9150615d7582615d34565b602082019050919050565b60006020820190508181036000830152615d9981615d5d565b905091905056fe4d6574615472616e73616374696f6e2875696e74323536206e6f6e63652c616464726573732066726f6d2c62797465732066756e6374696f6e5369676e617475726529a2646970667358221220bfe3bfb9f2fa2da606a1a1e05ffe182f0a0cf5b9d3ab003c7c42b72d12f4c19064736f6c63430008110033",
  "immutableReferences": {},
  "source": "// SPDX-License-Identifier: MIT\npragma solidity ^0.8.0;\n\nimport \"@openzeppelin/contracts/utils/introspection/IERC165.sol\";\nimport \"./IERC721.sol\";\nimport \"./IERC721Enumerable.sol\";\nimport \"@openzeppelin/contracts/utils/introspection/ERC165.sol\";\nimport \"@openzeppelin/contracts/utils/Strings.sol\";\nimport \"@openzeppelin/contracts/utils/Address.sol\";\nimport \"./IERC721Metadata.sol\";\nimport \"@openzeppelin/contracts/token/ERC721/IERC721Receiver.sol\";\nimport \"@openzeppelin/contracts/utils/Context.sol\";\nimport \"./ERC721.sol\";\nimport \"./ERC721Enumerable.sol\";\nimport \"@openzeppelin/contracts/access/Ownable.sol\";\nimport \"@openzeppelin/contracts/security/ReentrancyGuard.sol\";\nimport \"operator-filter-registry/src/DefaultOperatorFilterer.sol\";\n\nabstract contract ContextMixin {\n    function msgSender() internal view returns (address payable sender) {\n        if (msg.sender == address(this)) {\n            bytes memory array = msg.data;\n            uint256 index = msg.data.length;\n            assembly {\n                // Load the 32 bytes word from memory with the address on the lower 20 bytes, and mask those.\n                sender := and(\n                    mload(add(array, index)),\n                    0xffffffffffffffffffffffffffffffffffffffff\n                )\n            }\n        } else {\n            sender = payable(msg.sender);\n        }\n        return sender;\n    }\n}\n\ncontract Initializable {\n    bool inited = false;\n\n    modifier initializer() {\n        require(!inited, \"already inited\");\n        _;\n        inited = true;\n    }\n}\n\ncontract EIP712Base is Initializable {\n    struct EIP712Domain {\n        string name;\n        string version;\n        address verifyingContract;\n        bytes32 salt;\n    }\n\n    string public constant ERC712_VERSION = \"1\";\n\n    bytes32 internal constant EIP712_DOMAIN_TYPEHASH =\n        keccak256(\n            bytes(\n                \"EIP712Domain(string name,string version,address verifyingContract,bytes32 salt)\"\n            )\n        );\n    bytes32 internal domainSeperator;\n\n    // supposed to be called once while initializing.\n    // one of the contractsa that inherits this contract follows proxy pattern\n    // so it is not possible to do this in a constructor\n    function _initializeEIP712(string memory name) internal initializer {\n        _setDomainSeperator(name);\n    }\n\n    function _setDomainSeperator(string memory name) internal {\n        domainSeperator = keccak256(\n            abi.encode(\n                EIP712_DOMAIN_TYPEHASH,\n                keccak256(bytes(name)),\n                keccak256(bytes(ERC712_VERSION)),\n                address(this),\n                bytes32(getChainId())\n            )\n        );\n    }\n\n    function getDomainSeperator() public view returns (bytes32) {\n        return domainSeperator;\n    }\n\n    function getChainId() public view returns (uint256) {\n        uint256 id;\n        assembly {\n            id := chainid()\n        }\n        return id;\n    }\n\n    /**\n     * Accept message hash and returns hash message in EIP712 compatible form\n     * So that it can be used to recover signer from signature signed using EIP712 formatted data\n     * https://eips.ethereum.org/EIPS/eip-712\n     * \"\\\\x19\" makes the encoding deterministic\n     * \"\\\\x01\" is the version byte to make it compatible to EIP-191\n     */\n    function toTypedMessageHash(bytes32 messageHash)\n        internal\n        view\n        returns (bytes32)\n    {\n        return\n            keccak256(\n                abi.encodePacked(\"\\x19\\x01\", getDomainSeperator(), messageHash)\n            );\n    }\n}\n\ncontract NativeMetaTransaction is EIP712Base {\n    bytes32 private constant META_TRANSACTION_TYPEHASH =\n        keccak256(\n            bytes(\n                \"MetaTransaction(uint256 nonce,address from,bytes functionSignature)\"\n            )\n        );\n    event MetaTransactionExecuted(\n        address userAddress,\n        address payable relayerAddress,\n        bytes functionSignature\n    );\n    mapping(address => uint256) nonces;\n\n    /*\n     * Meta transaction structure.\n     * No point of including value field here as if user is doing value transfer then he has the funds to pay for gas\n     * He should call the desired function directly in that case.\n     */\n    struct MetaTransaction {\n        uint256 nonce;\n        address from;\n        bytes functionSignature;\n    }\n\n    function executeMetaTransaction(\n        address userAddress,\n        bytes memory functionSignature,\n        bytes32 sigR,\n        bytes32 sigS,\n        uint8 sigV\n    ) public payable returns (bytes memory) {\n        MetaTransaction memory metaTx = MetaTransaction({\n            nonce: nonces[userAddress],\n            from: userAddress,\n            functionSignature: functionSignature\n        });\n        require(\n            verify(userAddress, metaTx, sigR, sigS, sigV),\n            \"Signer and signature do not match\"\n        );\n\n        // increase nonce for user (to avoid re-use)\n        nonces[userAddress] = nonces[userAddress] + 1;\n\n        emit MetaTransactionExecuted(\n            userAddress,\n            payable(msg.sender),\n            functionSignature\n        );\n\n        // Append userAddress and relayer address at the end to extract it from calling context\n        (bool success, bytes memory returnData) = address(this).call(\n            abi.encodePacked(functionSignature, userAddress)\n        );\n        require(success, \"Function call not successful\");\n\n        return returnData;\n    }\n\n    function hashMetaTransaction(MetaTransaction memory metaTx)\n        internal\n        pure\n        returns (bytes32)\n    {\n        return\n            keccak256(\n                abi.encode(\n                    META_TRANSACTION_TYPEHASH,\n                    metaTx.nonce,\n                    metaTx.from,\n                    keccak256(metaTx.functionSignature)\n                )\n            );\n    }\n\n    function getNonce(address user) public view returns (uint256 nonce) {\n        nonce = nonces[user];\n    }\n\n    function verify(\n        address signer,\n        MetaTransaction memory metaTx,\n        bytes32 sigR,\n        bytes32 sigS,\n        uint8 sigV\n    ) internal view returns (bool) {\n        require(signer != address(0), \"NativeMetaTransaction: INVALID_SIGNER\");\n        return\n            signer ==\n            ecrecover(\n                toTypedMessageHash(hashMetaTransaction(metaTx)),\n                sigV,\n                sigR,\n                sigS\n            );\n    }\n}\n\ncontract PrettyFaces is\n    ERC721Enumerable,\n    Ownable,\n    ReentrancyGuard,\n    ContextMixin,\n    NativeMetaTransaction,\n    DefaultOperatorFilterer\n{\n    using Strings for uint256;\n\n    string baseURI;\n    string public baseExtension = \".json\";\n    uint256 public cost;\n    uint256 public maxSupply;\n    uint256 public maxMintAmount = 10;\n    uint256 public timeDeployed;\n    uint256 public allowMintingAfter = 0;\n    bool public isPaused = false;\n    bool public isRevealed = true;\n    string public notRevealedUri;\n    address payable public artist;\n    uint256 public royalityFee;\n    uint256 public giftMintCount;\n    mapping(uint256 => address) public giftReceivers;\n    event Sale(address from, address to, uint256 value);\n\n    constructor(\n        string memory _name,\n        string memory _symbol,\n        uint256 _cost,\n        uint256 _maxSupply,\n        uint256 _allowMintingOn,\n        string memory _initBaseURI,\n        string memory _initNotRevealedUri,\n        address payable _artist,\n        uint256 _royalityFee\n    ) ERC721(_name, _symbol) {\n        if (_allowMintingOn > block.timestamp) {\n            allowMintingAfter = _allowMintingOn - block.timestamp;\n        }\n        artist = _artist;\n        royalityFee = _royalityFee;\n        cost = _cost;\n        maxSupply = _maxSupply;\n        timeDeployed = block.timestamp;\n\n        setBaseURI(_initBaseURI);\n        setNotRevealedURI(_initNotRevealedUri);\n    }\n\n    // internal\n    function _baseURI() internal view virtual override returns (string memory) {\n        return baseURI;\n    }\n\n    // public\n    function mint(uint256 _mintAmount) public payable nonReentrant {\n        require(\n            block.timestamp >= timeDeployed + allowMintingAfter,\n            \"Minting not allowed yet\"\n        );\n\n        require(\n            balanceOf(msg.sender) <= maxMintAmount,\n            \"Max 100 mint per account\"\n        );\n        require(\n            _mintAmount > 0 && _mintAmount <= maxMintAmount,\n            \"Not a valid mint amount. Try 1 mint a time.\"\n        );\n\n        uint256 supply = totalSupply();\n        require(!isPaused);\n        require(\n            supply + _mintAmount <= maxSupply,\n            \"The mint amount you entered exceeds total supply. Enter a smaller amount.\"\n        );\n\n        if (msg.sender != owner()) {\n            require(msg.value >= cost * _mintAmount);\n        }\n\n        uint256 royality = (msg.value * royalityFee) / 100;\n        _payRoyality(royality);\n\n        for (uint256 i = 1; i <= _mintAmount; i++) {\n            _safeMint(msg.sender, supply + i);\n        }\n    }\n\n    function giftMint(uint256 _mintAmount, address _to) public onlyOwner {\n        require(\n            _mintAmount > 0 && _mintAmount <= maxMintAmount,\n            \"Not a valid mint amount. Try 1 mint a time.\"\n        );\n        uint256 supply = totalSupply();\n        require(!isPaused);\n        require(\n            supply + _mintAmount <= maxSupply,\n            \"The mint amount you entered exceeds total supply. Enter a smaller amount.\"\n        );\n\n        for (uint256 i = 1; i <= _mintAmount; i++) {\n            giftMintCount = giftMintCount + 1;\n            giftReceivers[giftMintCount - 1] = _to;\n            _safeMint(_to, supply + i);\n        }\n    }\n\n    function walletOfOwner(address _owner)\n        public\n        view\n        returns (uint256[] memory)\n    {\n        uint256 ownerTokenCount = balanceOf(_owner);\n        uint256[] memory tokenIds = new uint256[](ownerTokenCount);\n        for (uint256 i; i < ownerTokenCount; i++) {\n            tokenIds[i] = tokenOfOwnerByIndex(_owner, i);\n        }\n        return tokenIds;\n    }\n\n    function tokenURI(uint256 tokenId)\n        public\n        view\n        virtual\n        override\n        returns (string memory)\n    {\n        require(\n            _exists(tokenId),\n            \"ERC721Metadata: URI query for nonexistent token\"\n        );\n\n        if (isRevealed == false) {\n            return notRevealedUri;\n        }\n\n        string memory currentBaseURI = _baseURI();\n        return\n            bytes(currentBaseURI).length > 0\n                ? string(\n                    abi.encodePacked(\n                        currentBaseURI,\n                        tokenId.toString(),\n                        baseExtension\n                    )\n                )\n                : \"\";\n    }\n\n    function getSecondsUntilMinting() public view returns (uint256) {\n        if (block.timestamp < timeDeployed + allowMintingAfter) {\n            return (timeDeployed + allowMintingAfter) - block.timestamp;\n        } else {\n            return 0;\n        }\n    }\n\n    // Only Owner Functions\n    function setIsRevealed(bool _state) public onlyOwner {\n        isRevealed = _state;\n    }\n\n    function setCost(uint256 _newCost) public onlyOwner {\n        cost = _newCost;\n    }\n\n    function setmaxMintAmount(uint256 _newmaxMintAmount) public onlyOwner {\n        maxMintAmount = _newmaxMintAmount;\n    }\n\n    function setNotRevealedURI(string memory _notRevealedURI) public onlyOwner {\n        notRevealedUri = _notRevealedURI;\n    }\n\n    function setBaseURI(string memory _newBaseURI) public onlyOwner {\n        baseURI = _newBaseURI;\n    }\n\n    function setBaseExtension(string memory _newBaseExtension)\n        public\n        onlyOwner\n    {\n        baseExtension = _newBaseExtension;\n    }\n\n    function setIsPaused(bool _state) public onlyOwner {\n        isPaused = _state;\n    }\n\n    function withdraw() public payable onlyOwner {\n        (bool success, ) = payable(msg.sender).call{\n            value: address(this).balance\n        }(\"\");\n        require(success);\n    }\n\n    function _payRoyality(uint256 _royalityFee) internal {\n        (bool success1, ) = payable(artist).call{value: _royalityFee}(\"\");\n        require(success1);\n    }\n\n    function setApprovalForAll(address operator, bool approved)\n        public\n        override(ERC721, IERC721)\n        onlyAllowedOperatorApproval(operator)\n    {\n        super.setApprovalForAll(operator, approved);\n    }\n\n    function approve(address operator, uint256 tokenId)\n        public\n        override(ERC721, IERC721)\n        onlyAllowedOperatorApproval(operator)\n    {\n        super.approve(operator, tokenId);\n    }\n\n    function transferFrom(\n        address from,\n        address to,\n        uint256 tokenId\n    ) public payable override(ERC721, IERC721) onlyAllowedOperator(from) {\n        require(\n            _isApprovedOrOwner(_msgSender(), tokenId),\n            \"ERC721: transfer caller is not owner nor approved\"\n        );\n\n        if (msg.value > 0) {\n            uint256 royality = (msg.value * royalityFee) / 100;\n            _payRoyality(royality);\n\n            (bool success2, ) = payable(from).call{value: msg.value - royality}(\n                \"\"\n            );\n            require(success2);\n\n            emit Sale(from, to, msg.value);\n        }\n\n        _transfer(from, to, tokenId);\n    }\n\n    function safeTransferFrom(\n        address from,\n        address to,\n        uint256 tokenId\n    ) public payable override(ERC721, IERC721) onlyAllowedOperator(from) {\n        if (msg.value > 0) {\n            uint256 royality = (msg.value * royalityFee) / 100;\n            _payRoyality(royality);\n\n            (bool success2, ) = payable(from).call{value: msg.value - royality}(\n                \"\"\n            );\n            require(success2);\n\n            emit Sale(from, to, msg.value);\n        }\n\n        safeTransferFrom(from, to, tokenId, \"\");\n    }\n\n    function safeTransferFrom(\n        address from,\n        address to,\n        uint256 tokenId,\n        bytes memory _data\n    ) public payable override(ERC721, IERC721) onlyAllowedOperator(from) {\n        require(\n            _isApprovedOrOwner(_msgSender(), tokenId),\n            \"ERC721: transfer caller is not owner nor approved\"\n        );\n\n        if (msg.value > 0) {\n            uint256 royality = (msg.value * royalityFee) / 100;\n            _payRoyality(royality);\n\n            (bool success2, ) = payable(from).call{value: msg.value - royality}(\n                \"\"\n            );\n            require(success2);\n\n            emit Sale(from, to, msg.value);\n        }\n\n        _safeTransfer(from, to, tokenId, _data);\n    }\n\n    function isApprovedForAll(address _owner, address _operator)\n        public\n        view\n        override(ERC721, IERC721)\n        returns (bool isOperator)\n    {\n        //if OpenSea's ERC721 Proxy Address is detected, auto-return true\n        // for Polygon's Mumbai testnet, use 0xff7Ca10aF37178BdD056628eF42fD7F799fAc77c\n        if (_operator == address(0x58807baD0B376efc12F5AD86aAc70E78ed67deaE)) {\n            return true;\n        }\n        //otherwise, use use the default ERC721.isApprovedForAll()\n        return ERC721.isApprovedForAll(_owner, _operator);\n    }\n\n    function _msgSender() internal view override returns (address sender) {\n        return ContextMixin.msgSender();\n    }\n}\n",
  "sourcePath": "/Users/bowenzhang/pretty_faces_paperwhite/pretty_faces_paperwhite/src/contracts/PrettyFaces.sol",
  "compiler": {
    "name": "solc",
    "version": "0.8.17+commit.8df45f5f.Emscripten.clang"
  },
  "schemaVersion": "3.4.11",
  "updatedAt": "2023-01-21T00:25:29.548Z",
  "networkType": "ethereum",
  "devdoc": {
    "errors": {
      "OperatorNotAllowed(address)": [
        {
          "details": "Emitted when an operator is not allowed."
        }
      ]
    },
    "kind": "dev",
    "methods": {
      "balanceOf(address)": {
        "details": "See {IERC721-balanceOf}."
      },
      "getApproved(uint256)": {
        "details": "See {IERC721-getApproved}."
      },
      "name()": {
        "details": "See {IERC721Metadata-name}."
      },
      "owner()": {
        "details": "Returns the address of the current owner."
      },
      "ownerOf(uint256)": {
        "details": "See {IERC721-ownerOf}."
      },
      "renounceOwnership()": {
        "details": "Leaves the contract without owner. It will not be possible to call `onlyOwner` functions anymore. Can only be called by the current owner. NOTE: Renouncing ownership will leave the contract without an owner, thereby removing any functionality that is only available to the owner."
      },
      "supportsInterface(bytes4)": {
        "details": "See {IERC165-supportsInterface}."
      },
      "symbol()": {
        "details": "See {IERC721Metadata-symbol}."
      },
      "tokenByIndex(uint256)": {
        "details": "See {IERC721Enumerable-tokenByIndex}."
      },
      "tokenOfOwnerByIndex(address,uint256)": {
        "details": "See {IERC721Enumerable-tokenOfOwnerByIndex}."
      },
      "tokenURI(uint256)": {
        "details": "See {IERC721Metadata-tokenURI}."
      },
      "totalSupply()": {
        "details": "See {IERC721Enumerable-totalSupply}."
      },
      "transferOwnership(address)": {
        "details": "Transfers ownership of the contract to a new account (`newOwner`). Can only be called by the current owner."
      }
    },
    "version": 1
  },
  "userdoc": {
    "kind": "user",
    "methods": {},
    "version": 1
  }
}